:020000040800F2
:100000000021002065020008FB4300088B14000853
:10001000F9430008AF04000817470008000000007B
:10002000000000000000000000000000CD010008FA
:10003000B104000800000000110200080544000897
:100040007F0200087F0200087F0200087F0200088C
:100050007F0200087F0200087F0200087F0200087C
:100060007F0200087F0200087F0200087F0200086C
:100070007F0200087F0200087F0200087F0200085C
:100080007F0200087F0200087F0200087F0200084C
:100090007F0200087F0200087F0200087F0200083C
:1000A0007F0200087F0200087F0200087F0200082C
:1000B0007F0200087F0200087F0200087F0200081C
:1000C0007F0200087F0200087F0200087F0200080C
:1000D0007F0200087F0200087F0200087F020008FC
:1000E0007F0200087F0200087F0200087F020008EC
:1000F0007F0200087F0200087F0200087F020008DC
:100100007F0200087F020008914400087F02000877
:100110007F0200087F0200087F0200087F020008BB
:100120007F0200087F0200087F0200087F020008AB
:1001300000F002F800F03AF80AA090E8000C8244BF
:100140008344AAF10107DA4501D100F02FF8AFF29C
:10015000090EBAE80F0013F0010F18BFFB1A43F0A5
:10016000010318478C780000AC780000103A24BFD7
:1001700078C878C1FAD8520724BF30C830C144BF0C
:1001800004680C607047000000230024002500264E
:10019000103A28BF78C1FBD8520728BF30C148BFEA
:1001A0000B6070471FB51FBD10B510BD00F045F9BD
:1001B0001146FFF7F7FF04F0BFFA00F063F903B44C
:1001C000FFF7F2FF03BC00F06BF90000224B196847
:1001D0000868B0E8F00F80F30988BFF36F8F4FF025
:1001E000000080F311884EF00D0E704700000000F3
:1001F00006480068006880F3088862B661B6BFF3FD
:100200004F8FBFF36F8F00DF00BF00BF08ED00E02E
:10021000EFF30980BFF36F8F0F4B1A6820E9F00FDF
:10022000106008B54FF0500080F31188BFF34F8F76
:10023000BFF36F8F05F0A0F94FF0000080F3118835
:10024000BDE8084019680868B0E8F00F80F3098835
:10025000BFF36F8F704700BF1C000020EFF30580D5
:10026000704700000948804709480047FEE7FEE75D
:10027000FEE7FEE7FEE7FEE7FEE7FEE7FEE7FEE756
:1002800004480549054A064B704700008F440008A2
:1002900031010008001B002000210020001D00206B
:1002A000001D0020032A40F2308010F0030C00F003
:1002B000158011F8013BBCF1020F624498BF11F8A0
:1002C00001CB00F8013B38BF11F8013BA2F1040259
:1002D00098BF00F801CB38BF00F8013B11F00303D1
:1002E00000F05780083AC0F0088051F8043B083A03
:1002F00051F804CBA0E80810F5E7121D5CBF51F8D7
:10030000043B40F8043BAFF30080D20724BF11F850
:10031000013B11F801CB48BF11F8012B24BF00F8B5
:10032000013B00F801CB48BF00F8012B704702F0F9
:10033000FF0343EA032242EA024200F05EB84FF0B4
:10034000000200B5134694469646203922BFA0E825
:100350000C50A0E80C50B1F12001BFF4F7AF090731
:1003600028BFA0E80C5048BF0CC05DF804EB890022
:1003700028BF40F8042B08BF704748BF20F8022B65
:1003800011F0804F18BF00F8012B7047704770477D
:10039000704710B5203AC0F00B80B1E81850203AF1
:1003A000A0E81850B1E81850A0E81850BFF4F5AF15
:1003B0005FEA027C24BFB1E81850A0E8185044BF9F
:1003C00018C918C0BDE810405FEA827C24BF51F80C
:1003D000043B40F8043B08BF7047D20728BF31F800
:1003E000023B48BF11F8012B28BF20F8023B48BF51
:1003F00000F8012B70474FF000020429C0F0128072
:1004000010F0030C3FF49DAFCCF1040CBCF1020FD3
:1004100018BF00F8012BA8BF20F8022BA1EB0C019C
:10042000FFF78FBF5FEAC17C24BF00F8012B00F803
:10043000012B48BF00F8012B7047754600F02CF8DF
:10044000AE4605006946534620F00700854618B0C1
:1004500020B5FFF715FFBDE820404FF000064FF034
:1004600000074FF000084FF0000B21F00701AC46E9
:10047000ACE8C009ACE8C009ACE8C009ACE8C00908
:100480008D46704710B50446AFF300802046BDE8A6
:100490001040FFF794BE000000487047A01A0020EB
:1004A00001491820ABBEFEE7260002007047FEE7B8
:1004B000704772B6FEE7000030B5B3F5804F05D047
:1004C0006FF0704140F82210002030BD8C690B683D
:1004D0008D6823434C688989240144EA0524234319
:1004E00043EA014150F82230014C23401943E9E727
:1004F0000000F0CF10B50A6850F8223023F0010355
:1005000040F822308C68082C23D000234A6822430C
:10051000CC681C430B6922431A434B690E4C1A43A7
:10052000CB691A430B6A1A434B6A1A438B6A1A4304
:10053000CB6A1A430B6B1A438B6913434A6B0968E6
:100540001A4350F82130A343134340F821300020D0
:1005500010BD4023DAE700007FFF0F0030B5D1E97E
:10056000003443EA04138C688D89240244EA05446C
:1005700023430C8A094D00EB820005EB045423430E
:100580000C7D6D0105EB0464896923430B434168CD
:1005900001F040410B434360002030BD0000F0FFFC
:1005A00070B5044600F050F90546601C02D00448BE
:1005B0000078044400F048F9401BA042FAD370BD13
:1005C0000C00002030B585B0002000900190029012
:1005D000039017480168002927D1012101601548BF
:1005E000416941F4807141614069022400F48070E6
:1005F000049041F20100CDE900040325694603950A
:100600000D4800F01FF84FF68070CDE900046946F0
:1006100003950A4800F016F84CF23370CDE9000457
:1006200069460395064800F00DF805B030BD00009E
:10063000040000200010024000200140001801408A
:10064000001401402DE9F84FDFF8C8910024A9F10A
:10065000040B23460F2709F1040AABF1040ED1E085
:100660000125A54006EA0502AA4276D1DFF8A8C115
:100670004E68A6EB0C0866452BD00DDC032E34D05B
:1006800005DC36B3012E19D0022E2FD11BE0112E1E
:1006900016D0122E2AD119E0B8F5881F19D006DC21
:1006A000B8F5803F15D0B8F5801F1FD111E0B8F51F
:1006B000001F0ED0B8F5041F18D10AE0CB6815E072
:1006C000CB681B1D12E0CB6808330FE0CB680C33FE
:1006D0000CE08B682BB1012B4FF0080303D0456170
:1006E00004E0042302E0056100E00023FF2A01D8B2
:1006F000064601E000F104064FEA840501D9A5F1A0
:100700002005D6F8008007FA05FC28EA0C0803FA51
:1007100005F548EA0508C6F800804D68ED0070D57B
:100720003E4DAE6946F00106AE61AD6924F00306A8
:1007300005F0010500953A4D06EB050CDCF8085074
:10074000A607360F07FA06F825EA0805DFF8D48071
:10075000404503D14FF0000825E052E0DFF8C880A3
:10076000404502D14FF001081DE0DFF8C080404550
:1007700002D14FF0020816E0DFF8B480404502D104
:100780004FF003080FE0DFF8AC80404502D14FF096
:10079000040808E0DFF8A080404502D14FF00508CA
:1007A00001E04FF0060808FA06F848EA0508CCF818
:1007B00008804D68D9F80060ED024D4601D516431A
:1007C00000E096432E604D68DAF80060AD025546B1
:1007D00001D5164300E096432E604D68DBF80060BB
:1007E000AD035D4601D5164300E096432E604D688B
:1007F000DEF80060ED03754601D5164300E0964330
:100800002E60641C0A681646E2407FF429AFBDE8FA
:10081000F88F000008040140000011100010024091
:100820000000014000080140000C014000100140A0
:100830000014014000180140001C01400AB1016190
:1008400070470904FBE7000001488068704700001A
:100850000C000020024881680278114481607047D2
:100860000C000020074810B5016841F0100101603C
:10087000032000F0A7F80F2000F006F800F050F871
:10088000002010BD0020024030B505461F4887B04B
:10089000C16941F00801C161C06906A900F0080002
:1008A000009001A800F036F90498B0B100F052F9B8
:1008B00040001749174AB0FBF1F11748491E026082
:1008C000416040F2E7320021C0E90321816081618B
:1008D00000F07AFB040003D015E000F03BF9E8E7F4
:1008E0000D4800F0B3FB04000DD1322000F03CF8BD
:1008F000102D07D200222946322000F043F8074885
:10090000056000E0012407B0204630BD0010024021
:1009100040420F00000C00402C010020100000207D
:100920000F4808B5816941F001018161816901F0D9
:1009300001010091C16941F08051C161C06900228B
:1009400000F0805000900F21901E00F01BF8054829
:10095000416821F0E06141F00071416008BD000094
:100960000010024000000140002809DB00F01F02D7
:10097000012191404009800000F1E020C0F8001101
:1009800070470000F0B40E4B1B680C46C3F3022303
:10099000C3F10705042D00D90425191D072901D22B
:1009A000002300E0DB1E012606FA05F1491E214066
:1009B00099409E40761E16403143F0BC03F0ACBE19
:1009C0000CED00E0064900F0070208684FF6FF034F
:1009D000184040EA0220034A1043086070470000B4
:1009E0000CED00E00000FA052DE9F0470F46050088
:1009F00061D0434E306800F00700B84209D2306839
:100A000020F0070038433060306800F00700B8423B
:100A100051D128683B4C810712D5400703D5606847
:100A200040F4E06060602878000703D5606840F417
:100A3000605060606068A96820F0F0000843606062
:100A40002878C00728D06868012810D021680228BB
:100A500010D0890700292EDA616821F003010143D3
:100A60006160FFF7F1FE804641F288390DE02168B0
:100A70008903EFE78901EDE7FFF7E6FEA0EB080148
:100A8000494502D90320BDE8F0876068696800F035
:100A90000C00B0EB810FEFD1306800F00700B842D6
:100AA0000BD9306820F0070038433060306800F020
:100AB0000700B84201D00120E5E72878400705D5B6
:100AC0006068E96820F4E060084360602878000707
:100AD00006D56068296920F4605040EAC100606072
:100AE00000F048F86168084AC1F30311515CC8403E
:100AF0000649086006480068FFF7C6FE0020C2E706
:100B000000200240001002400A6200081800002085
:100B1000100000200F2202600C4A536803F0030308
:100B20004360536803F0F0038360536803F4E063A9
:100B3000C36052684FF4E06303EAD20202610448E2
:100B4000006800F0070008607047000000100240D5
:100B5000002002400448054900684968044AC1F37E
:100B60000221515CC840704718000020001002406C
:100B70001A6200080E4A51680E4801F00C03042B5B
:100B800011D0082B0FD10C48C1F38343C903C05CBB
:100B90000AD55168084AC1F34041921E515C054A8A
:100BA0005043B0FBF1F070470449484370470000E0
:100BB0000010024000127A00FA61000800093D00AE
:100BC0002DE9F84F040070D02078C04DC00749D0FF
:100BD0006868C0F38100012807D06868C0F381000D
:100BE000022809D16868C00306D52868800339D572
:100BF00060680028E7D035E06068B0F5803F0BD032
:100C000010B1B0F5A02F11D0286820F480302860F2
:100C1000286820F4802002E0286840F480302860B2
:100C2000606890B1FFF710FE06460AE0286840F4BD
:100C300080202860F0E700BFFFF706FE801B6428D5
:100C400073D828688003F7D50CE0FFF7FDFD064652
:100C500005E000BFFFF7F8FD801B6428F0D8286886
:100C60008003F7D420789A4E80074FF001094FF0A7
:100C7000000839D5686810F00C0F07D06868C0F319
:100C80008100022809D16868C00306D4286880075B
:100C900014D52069012808D110E02069B0B1C6F848
:100CA0000090FFF7D1FD074605E00AE1FFF7CCFD14
:100CB000C01B0228C4D828688007F7D52868616956
:100CC00020F0F80040EAC10028600DE0C6F800807E
:100CD000FFF7BAFD074604E0FFF7B6FDC01B022888
:100CE00023D828688007F7D4207800072CD57948C6
:100CF000A169D9B1C0F80090FFF7A6FD074604E04E
:100D0000FFF7A2FDC01B02280FD8686A8007F7D53D
:100D100071484FF4FA510068B0FBF1F0009000BF49
:100D20000098411E0091FAD20EE080E0C0F80080E9
:100D3000FFF78AFD074604E0FFF786FDC01B022887
:100D400075D8686A8007F7D42078400760D5E869CD
:100D50000027C00008D4E86940F08050E861E869E5
:100D6000012700F0805000905C480168C90513D449
:100D70000168834641F480710160FFF765FD82469A
:100D800006E000BFFFF760FDA0EB0A0064284ED824
:100D9000DBF80000C005F5D5E06801280AD008B1ED
:100DA000052813D0286A20F001002862286A20F064
:100DB000040002E0286A40F001002862E06841F285
:100DC000883B98B1FFF740FD82460BE0286A40F06F
:100DD00004002862EEE700BFFFF736FDA0EB0A0132
:100DE00059455AD8286A8007F6D50CE0FFF72CFD44
:100DF000824605E0FFF728FDA0EB0A0159454CD8D3
:100E0000286A8007F6D41FB1E86920F08050E861B5
:100E1000E06988B36968C1F38101022944D00228DE
:100E2000C6F8608004D0FFF70FFD044638E034E0D8
:100E3000FFF70AFD074604E0FFF706FDC01B022886
:100E40002BD828688001F7D4206AB0F5803F05D1FF
:100E50006868A16820F4003008436860D4E908019C
:100E60000843696821F4741108436860C6F860900B
:100E7000FFF7EAFC044606E025E000BFFFF7E4FCCC
:100E8000001B022809D828688001F7D51BE000BFA5
:100E9000FFF7DAFC001B022802D90320BDE8F88F17
:100EA00028688001F4D40EE00128F7D06868226A2F
:100EB00000F48031914204D1616A00F470108842DC
:100EC00001D00120EAE70020E8E70000001002401E
:100ED000000042428004424218000020007000409E
:100EE00070B515460E46040007D0A069B0F5807FA6
:100EF00003D094F8410010B107E0012070BD00203C
:100F000084F84000204600F01DF804F10801206834
:100F1000FFF7F0FA3146A2682068FFF71FFBD4E91B
:100F200001022946236BFFF7C7FAA168206850F831
:100F3000212042F0010240F82120012084F84100E4
:100F4000002070BDFFF73EBB7047704770B590F84A
:100F50003C20012A2CD0012480F83C40022280F859
:100F60003D2003685A689D6822F070060A68324383
:100F70005A60104B02689A420ED00F4B9A420BD027
:100F8000B2F1804F08D00D4B9A4205D00C4B9A42DB
:100F900002D00C4B9A4204D1496825F080031943D2
:100FA000916080F83D40002180F83C10084670BDFB
:100FB000022070BD002C01400034014000040040BC
:100FC00000080040000C004010B5040003D094F865
:100FD0003D0010B107E0012010BD002084F83C0066
:100FE000204600F01FF8022084F83D00211D2068F3
:100FF00003F054FA012084F8460084F83E0084F897
:101000003F0084F8400084F8410084F8420084F8EE
:10101000430084F8440084F8450084F83D00002033
:1010200010BD000008B500680649884208D106488E
:10103000C16941F00401C161C06900F00400009081
:1010400008BD0000000800400010024090F83D106C
:10105000012901D001207047022180F83D1001686C
:10106000CA6842F00102CA6000680E4988420ED088
:101070000D4988420BD0B0F1804F08D00B4988420F
:1010800005D00B49884202D00A49884204D18168C0
:1010900001F00701062903D0016841F00101016058
:1010A00000207047002C0140003401400004004043
:1010B00000080040000C004070B5044690F83C0069
:1010C0000025012817D0012684F83C60022084F80E
:1010D0003D002068826822F0770222F47F4282601D
:1010E0000868502838D00DDC20284FD005DC90B39C
:1010F000102811D14AE0022070BD302846D0402887
:101100000AD13BE060282FD070280DD0B0F5805F69
:1011100003D0B0F5005F12D0012584F83D600020B7
:1011200084F83C00284670BDCB68D1E901212068D5
:1011300003F0FAF92068816841F0770109E0CB6893
:10114000D1E90121206803F0EFF92068816841F4BA
:1011500080418160E1E719E0CA684968206803F0CE
:10116000B7FA5021206806E0CA684968206803F091
:10117000C0FA6021206803F0E1F9CEE7CA68496847
:10118000206803F0A5FA40212068F4E722680146B0
:101190001046F0E7704770B50446006801694FF0EB
:1011A0000005C943890715D4C168C943890711D40B
:1011B000E91E0161012020772068806980072046B0
:1011C00002D0FFF7E7FF04E000F0BEF8204600F091
:1011D00050F9257720680169C943490717D4C168C8
:1011E000C943490713D46FF004010161022020773D
:1011F0002068806910F4407F204602D0FFF7CAFFC4
:1012000004E000F0A1F8204600F033F925772068CB
:101210000169C943090716D4C168C943090712D433
:101220006FF008010161042020772068C069800701
:10123000204602D0FFF7AEFF04E000F085F820461C
:1012400000F017F9257720680169C943C90617D44A
:10125000C168C943C90613D46FF0100101610820A9
:1012600020772068C06910F4407F204602D0FFF745
:1012700091FF04E000F068F8204600F0FAF82577C6
:1012800020680169C943C90708D1C168C943C907B2
:1012900004D1891E0161204600F0ECF82068016944
:1012A000C943090609D4C168C943090605D46FF0CA
:1012B000800101612046FFF747FE20680169C943AC
:1012C000490609D4C168C943490605D46FF04001F5
:1012D0000161204600F0D8F820680169C9438906F9
:1012E0000BD4C168C943890607D46FF0200101619E
:1012F0002046BDE87040FFF728BE70BD00B585B040
:101300000021009101910291039100680B498842EC
:1013100012D10B48816941F00801816180696946F9
:1013200000F0080004904FF48070009002200190BB
:1013300003900448FFF786F905B000BD000800409F
:1013400000100240000C0140704770B5044690F850
:101350003C0000260D4601280FD0012084F83C00F7
:101360006AB1042A1DD0082A2FD00C2A3FD00126AA
:10137000002084F83C00304670BD022070BD20681B
:1013800003F0E4F82068816941F008018161206878
:10139000816921F004018161206881692A69114312
:1013A00011E0206803F002F92068816941F40061CE
:1013B00081612068816921F480618161206881698F
:1013C0002A6941EA02218161D2E7206803F024F909
:1013D0002068C16941F00801C1612068C16921F03C
:1013E0000401C1612068C1692A69114311E02068C4
:1013F00003F046F92068C16941F40061C1612068C9
:10140000C16921F48061C1612068C1692A6941EA2A
:101410000221C161ACE710B5040003D094F83D008F
:1014200010B107E0012010BD002084F83C002046E8
:1014300000F01EF8022084F83D00211D206803F012
:101440002DF8012084F8460084F83E0084F83F001F
:1014500084F8400084F8410084F8420084F8430096
:1014600084F8440084F8450084F83D00002010BD55
:101470007047704700680349884201D1FFF7EAB915
:1014800070470000000C00407047FEE770B504464E
:10149000002609480588408845430021084602F097
:1014A0001FFD02F083FE00BF02E004480480761CAA
:1014B000AE42FAD370BD0000901A00200008006C04
:1014C00010B5044649488471002C45D1F0204749A5
:1014D00008804FF4A07048800846808845F210517B
:1014E000884210D14FF43050404908814FF42850C1
:1014F00048814FF42C5088814FF4F07008804FF4ED
:10150000487048801AE03948808841F66311884263
:101510000DD12C20354908812B2048812A20888133
:101520004FF4F07008804FF44870488006E02C209B
:101530002E4908812A2048812B2088812B488088C9
:1015400045F2103188424CD14FF4A07027490880F1
:101550004FF4F070488044E04FF4A07023490880B5
:10156000F02048800846808845F21051884210D10A
:101570004FF430501D4908814FF4285048814FF4F2
:101580002C5088814FF4487008804FF4F0704880E8
:101590001AE01648808841F6631188420DD12C204C
:1015A000124908812A2048812B2088814FF44870F5
:1015B00008804FF4F070488006E02C200B49088129
:1015C0002A2048812B2088810848808845F21031E4
:1015D000884206D14FF4F070044908804FF4A0709F
:1015E0004880002002F062FB10BD0000901A00202D
:1015F00010B503460C463848808845F210518842A1
:1016000020D13549488902F0CBFD181202F0C2FD05
:1016100031494989491C88B202F0C2FDD8B202F0B2
:10162000B9FD2D49888902F0BBFD201202F0B2FD00
:1016300029498989491C88B202F0B2FDE0B202F062
:10164000A9FD42E02448808841F66311884228D1F0
:101650002148807920B920480088401EC01A83B2F2
:101660001D49488902F09CFD181202F093FDD8B282
:1016700002F090FD181202F08DFDD8B202F08AFD42
:101680001549888902F08CFD201202F083FDE0B23A
:1016900002F080FD201202F07DFDE0B202F07AFD42
:1016A00013E00D49488902F07BFD181202F072FD2B
:1016B000D8B202F06FFD0849888902F071FD20124E
:1016C00002F068FDE0B202F065FD034800890349BD
:1016D0000880881C028010BD901A0020FE07006C54
:1016E00010B53220FEF75CFFD32002F059FD02F066
:1016F000ADFAF949888002F0A9FAF749888002F02A
:10170000A5FAF5498880084680884FF6FF7101EAFE
:101710000020F149888002F099FAEF49898808434E
:10172000ED4988800846808849F2413188427DD061
:10173000042002F035FD02F089FAE749888002F0C2
:1017400085FAE549888002F081FAE34988800846F5
:1017500080884FF6FF7101EA0020DF49888002F09F
:1017600075FADD4989880843DB4988800846808806
:1017700048F25251884203D147F28970D649888095
:10178000D548808847F289718842D0D0D42002F0B1
:1017900007FD02F05BFAD049888002F057FACE4983
:1017A000888002F053FACC498880084680884FF63A
:1017B000FF7101EA0020C849888002F047FAC64953
:1017C00089880843C44988800846808845F21031DA
:1017D000884262D055214FF4704002F0F1FCAA21FA
:1017E0004FF2010002F0ECFC52214FF2020002F035
:1017F000E7FC08214FF2030002F0E2FC01214FF266
:10180000040002F0DDFC4FF4454002F0C9FC02F098
:101810001DFAB1498880084680884FF6FF7101EAB9
:101820000020AD4988804CF2015000E035E002F024
:10183000B7FC02F00BFAA84989880843A6498880BA
:101840003220FEF7ADFEA448808845F21051884250
:1018500023D0A12002F0A4FC02F0F8F99E49888070
:1018600002F0F4F99C498880084680884FF6FF71A1
:1018700001EA00209849888002F0E8F996498988B1
:101880000843954988800846808845F261718842FE
:1018900003D141F66310904988808F48808849F2CF
:1018A000413188427ED1CF2002F07AFC002002F044
:1018B00071FCC12002F06EFC302002F06BFCED20C8
:1018C00002F06EFC642002F065FC032002F062FC72
:1018D000122002F05FFC812002F05CFCE82002F0A4
:1018E0005FFC852002F056FC102002F053FC7A20A9
:1018F00002F050FCCB2002F053FC392002F04AFCED
:101900002C2002F047FC002002F044FC342002F0BE
:1019100041FC022002F03EFCF72002F041FC2020B6
:1019200002F038FCEA2002F03BFC002002F032FC1E
:10193000002002F02FFCC02002F032FC1B2002F03D
:1019400029FCC12002F02CFC012002F023FCC52060
:1019500002F026FC302002F01DFC302002F01AFCC0
:10196000C72002F01DFCB72002F014FC362002F064
:1019700017FC482002F00EFC3A2002F011FC552022
:1019800002F008FCB12002F00BFC002002F002FC87
:101990001A2002F0FFFBB62002F002FC0A2002F03F
:1019A000F9FB00E09AE0A22002F0F4FBF22002F042
:1019B000F7FB002002F0EEFB262002F0F1FB0120F5
:1019C00002F0E8FBE02002F0EBFB0F2002F0E2FB6C
:1019D0002A2002F0DFFB282002F0DCFB082002F0C6
:1019E000D9FB0E2002F0D6FB082002F0D3FB5420D6
:1019F00002F0D0FBA92002F0CDFB432002F0CAFB8D
:101A00000A2002F0C7FB0F2002F0C4FB002002F006
:101A1000C1FB002002F0BEFB002002F0BBFB002057
:101A200002F0B8FBE12002F0BBFB002002F0B2FBA9
:101A3000152002F0AFFB172002F0ACFB072002F0EC
:101A4000A9FB112002F0A6FB062002F0A3FB2B202D
:101A500002F0A0FB562002F09DFB3C2002F09AFB16
:101A6000052002F097FB102002F094FB0F2002F0FB
:101A700091FB3F2002F08EFB3F2002F08BFB0F20FA
:101A800002F088FB2B2002F08BFB002002F082FB8F
:101A9000002002F07FFB012002F07CFB3F2002F0DF
:101AA00079FB2A2002F07CFB002002F073FB00206F
:101AB00002F070FB002002F06DFBEF2002F06AFBE9
:101AC000112002F06DFB7820FEF76AFD292002F05C
:101AD00067FB02F0A9B80000901A0020FE48808839
:101AE00047F2897188427CD1112002F059FB78209D
:101AF000FEF756FD362002F053FB002002F04AFBB1
:101B00003A2002F04DFB052002F044FBB22002F027
:101B100047FB0C2002F03EFB0C2002F03BFB0020B8
:101B200002F038FB332002F035FB332002F032FBA9
:101B3000B72002F035FB352002F02CFBBB2002F071
:101B40002FFB322002F026FBC02002F029FB0C20E4
:101B500002F020FBC22002F023FB012002F01AFB5E
:101B6000C32002F01DFB102002F014FBC42002F081
:101B700017FB202002F00EFBC62002F011FB0F2005
:101B800002F008FBD02002F00BFBA42002F002FBC5
:101B9000A12002F0FFFAE02002F002FBD02002F0C8
:101BA000F9FA002002F0F6FA022002F0F3FA072018
:101BB00002F0F0FA0A2002F0EDFA282002F0EAFA28
:101BC000322002F0E7FA442002F0E4FA422002F068
:101BD000E1FA062002F0DEFA0E2002F0DBFA122013
:101BE00000E056E002F0D6FA142002F0D3FA1720F3
:101BF00002F0D0FAE12002F0D3FAD02002F0CAFAC3
:101C0000002002F0C7FA022002F0C4FA072002F016
:101C1000C1FA0A2002F0BEFA282002F0BBFA3120F5
:101C200002F0B8FA542002F0B5FA472002F0B2FAF6
:101C30000E2002F0AFFA1C2002F0ACFA172002F0DE
:101C4000A9FA1B2002F0A6FA1E2002F0A3FA2A200D
:101C500002F0A6FA002002F09DFA002002F09AFAA3
:101C6000002002F097FAEF2002F094FA2B2002F005
:101C700097FA002002F08EFA002002F08BFA012081
:101C800002F088FA3F2002F085FA292002F088FA53
:101C90001FE79148808845F21031884240F07C87E8
:101CA000ED2002F07DFA012002F074FAFE2002F02D
:101CB00071FAEE2002F074FADE2002F06BFA2120B5
:101CC00002F068FAF12002F06BFA012002F062FAE9
:101CD000DF2002F065FA102002F05CFAC42002F066
:101CE0005FFA8F2002F056FAC62002F059FA00205F
:101CF00002F050FAE22002F04DFAE22002F04AFA35
:101D0000E22002F047FABF2002F04AFAAA2002F0CD
:101D100041FAB02002F044FA0D2002F03BFA002014
:101D200002F038FA0D2002F035FA002002F032FA03
:101D3000112002F02FFA002002F02CFA192002F0F4
:101D400029FA002002F026FA212002F023FA0020CE
:101D500002F020FA2D2002F01DFA002002F01AFAFB
:101D60003D2002F017FA002002F014FA5D2002F084
:101D700011FA002002F00EFA5D2002F00BFA0020AA
:101D800002F008FAB12002F00BFA802002F002FA09
:101D9000002002F0FFF98B2002F0FCF9002002F095
:101DA000F9F9962002F0F6F9002002F0F3F9B220DA
:101DB00002F0F6F9002002F0EDF9002002F0EAF955
:101DC000022002F0E7F9002002F0E4F9032002F01B
:101DD000E1F9002002F0DEF9B32002F0E1F9002081
:101DE00002F0D8F9002002F0D5F9002002F0D2F973
:101DF000002002F0CFF9002002F0CCF9002002F020
:101E0000C9F9002002F0C6F9002002F0C3F9002051
:101E100002F0C0F9002002F0BDF9002002F0BAF98A
:101E2000002002F0B7F9002002F0B4F9002002F01F
:101E3000B1F9002002F0AEF9002002F0ABF9002069
:101E400002F0A8F9002002F0A5F9002002F0A2F9A2
:101E5000002002F09FF9002002F09CF9002002F01F
:101E600099F9002002F096F9002002F093F9B420CD
:101E700002F096F98B2002F08DF9002002F08AF929
:101E8000962002F087F9002002F084F9A12002F0E8
:101E900081F9002002F07EF9B52002F081F90220DC
:101EA00002F078F9002002F075F9032002F072F9CF
:101EB000002002F06FF9042002F06CF9002002F01B
:101EC00069F9B62002F06CF9002002F063F90020F5
:101ED00002F060F9B72001E0901A002002F060F9EA
:101EE000002002F057F9002002F054F93F2002F0E0
:101EF00051F9002002F04EF95E2002F04BF900206B
:101F000002F048F9642002F045F9002002F042F99D
:101F10008C2002F03FF9002002F03CF9AC2002F0E6
:101F200039F9002002F036F9DC2002F033F9002004
:101F300002F030F9702002F02DF9002002F02AF9A9
:101F4000902002F027F9002002F024F9EB2002F0A3
:101F500021F9002002F01EF9DC2002F01BF900201C
:101F600002F018F9B82002F01BF9002002F012F973
:101F7000002002F00FF9002002F00CF9002002F01E
:101F800009F9002002F006F9002002F003F9002010
:101F900002F000F9002002F0FDF8BA2002F000F98A
:101FA000242002F0F7F8002002F0F4F8002002F0FC
:101FB000F1F8002002F0EEF8C12002F0F1F8202044
:101FC00002F0E8F8002002F0E5F8542002F0E2F810
:101FD000002002F0DFF8FF2002F0DCF8002002F021
:101FE000D9F8C22002F0DCF80A2002F0D3F8002071
:101FF00002F0D0F8042002F0CDF8002002F0CAF878
:10200000C32002F0CDF83C2002F0C4F8002002F01A
:10201000C1F83A2002F0BEF8002002F0BBF83920E7
:1020200002F0B8F8002002F0B5F8372002F0B2F85C
:10203000002002F0AFF83C2002F0ACF8002002F0E3
:10204000A9F8362002F0A6F8002002F0A3F832200A
:1020500002F0A0F8002002F09DF82F2002F09AF87C
:10206000002002F097F82C2002F094F8002002F0F3
:1020700091F8292002F08EF8002002F08BF826203B
:1020800002F088F8002002F085F8242002F082F89F
:10209000002002F07FF8242002F07CF8002002F0FB
:1020A00079F8232002F076F8002002F073F83C2043
:1020B00002F070F8002002F06DF8362002F06AF8A5
:1020C000002002F067F8322002F064F8002002F0ED
:1020D00061F82F2002F05EF8002002F05BF82C205F
:1020E00002F058F8002002F055F8292002F052F8CA
:1020F000002002F04FF8262002F04CF8002002F0F9
:1021000049F8242002F046F8002002F043F8242089
:1021100002F040F8002002F03DF8232002F03AF8E7
:10212000002002F037F8C42002F03AF8622002F0F2
:1021300031F8002002F02EF8052002F02BF80020E4
:1021400002F028F8842002F025F8002002F022F89E
:10215000F02002F01FF8002002F01CF8182002F016
:1021600019F8002002F016F8A42002F013F800205D
:1021700002F010F8182002F00DF8002002F00AF822
:10218000502002F007F8002002F004F80C2002F0C2
:1021900001F8002001F0FEFF172001F0FBFF0020F6
:1021A00001F0F8FF952001F0F5FF002001F0F2FFAB
:1021B000F32001F0EFFF002001F0ECFFE62001F03A
:1021C000E9FF002001F0E6FFC52001F0E9FF322021
:1021D00001F0E0FF002001F0DDFF442001F0DAFF14
:1021E000002001F0D7FF652001F0D4FF002001F0AE
:1021F000D1FF762001F0CEFF002001F0CBFF882038
:1022000001F0C8FF002001F0C5FFC62001F0C8FFA3
:10221000202001F0BFFF002001F0BCFF172001F0DB
:10222000B9FF002001F0B6FF012001F0B3FF00204C
:1022300001F0B0FFC72001F0B3FF002001F0AAFFBA
:10224000002001F0A7FF002001F0A4FF002001F012
:10225000A1FFC82001F0A4FF002001F09BFF002097
:1022600001F098FF002001F095FF002001F092FF9F
:10227000C92001F095FF002001F08CFF002001F043
:1022800089FF002001F086FF002001F083FF00207D
:1022900001F080FF002001F07DFF002001F07AFFB7
:1022A000002001F077FF002001F074FF002001F012
:1022B00071FF002001F06EFF002001F06BFF002095
:1022C00001F068FF002001F065FF002001F062FFCF
:1022D000002001F05FFFE02001F062FF162001F016
:1022E00059FF002001F056FF1C2001F053FF002091
:1022F00001F050FF212001F04DFF002001F04AFFC6
:10230000362001F047FF002001F044FF462001F095
:1023100041FF002001F03EFF522001F03BFF002072
:1023200001F038FF642001F035FF002001F032FF9A
:102330007A2001F02FFF002001F02CFF8B2001F00C
:1023400029FF002001F026FF992001F023FF002043
:1023500001F020FFA82001F01DFF002001F01AFF6E
:10236000B92001F017FF002001F014FFC42001F094
:1023700011FF002001F00EFFCA2001F00BFF00202A
:1023800001F008FFD22001F005FF002001F002FF5C
:10239000D92001F0FFFE002001F0FCFEE02001F05A
:1023A000F9FE002001F0F6FEF32001F0F3FE00201C
:1023B00001F0F0FEE12001F0F3FE162001F0EAFE4C
:1023C000002001F0E7FE1C2001F0E4FE002001F0F7
:1023D000E1FE222001F0DEFE002001F0DBFE3620CF
:1023E00001F0D8FE002001F0D5FE452001F0D2FE1C
:1023F000002001F0CFFE522001F0CCFE002001F0C1
:10240000C9FE642001F0C6FE002001F0C3FE7A2060
:1024100001F0C0FE002001F0BDFE8B2001F0BAFEED
:10242000002001F0B7FE992001F0B4FE002001F079
:10243000B1FEA82001F0AEFE002001F0ABFEB920F5
:1024400001F0A8FE002001F0A5FEC42001F0A2FECC
:10245000002001F09FFECA2001F09CFE002001F048
:1024600099FED22001F096FE002001F093FED820C4
:1024700001F090FE002001F08DFEE02001F08AFEC8
:10248000002001F087FEF32001F084FE002001F01F
:1024900081FEE22001F084FE052001F07BFE002099
:1024A00001F078FE0B2001F075FE002001F072FEB5
:1024B0001B2001F06FFE002001F06CFE342001F0C3
:1024C00069FE002001F066FE442001F063FE00205A
:1024D00001F060FE4F2001F05DFE002001F05AFE89
:1024E000612001F057FE002001F054FE792001F038
:1024F00051FE002001F04EFE882001F04BFE00202E
:1025000001F048FE972001F045FE002001F042FE58
:10251000A62001F03FFE002001F03CFEB72001F0B4
:1025200039FE002001F036FEC22001F033FE00200B
:1025300001F030FEC72001F02DFE002001F02AFE40
:10254000D12001F027FE002001F024FED62001F06A
:1025500021FE002001F01EFEDD2001F01BFE002008
:1025600001F018FEF32001F015FE002001F012FE2C
:10257000E32001F015FE052001F00CFE002001F023
:1025800009FE0A2001F006FE002001F003FE1C20D7
:1025900001F000FE002001F0FDFD332001F0FAFD06
:1025A000002001F0F7FD442001F0F4FD002001F0CF
:1025B000F1FD502001F0EEFD002001F0EBFD622066
:1025C00001F0E8FD002001F0E5FD782001F0E2FDDA
:1025D000002001F0DFFD882001F0DCFD002001F08B
:1025E000D9FD972001F0D6FD002001F0D3FDA620F3
:1025F00001F0D0FD002001F0CDFDB72001F0CAFDB3
:10260000002001F0C7FDC22001F0C4FD002001F050
:10261000C1FDC72001F0BEFD002001F0BBFDD120AF
:1026200001F0B8FD002001F0B5FDD52001F0B2FDAC
:10263000002001F0AFFDDD2001F0ACFD002001F035
:10264000A9FDF32001F0A6FD002001F0A3FDE42088
:1026500001F0A6FD012001F09DFD002001F09AFD92
:10266000012001F097FD002001F094FD022001F00F
:1026700091FD002001F08EFD2A2001F08BFD00204D
:1026800001F088FD3C2001F085FD002001F082FD75
:102690004B2001F07FFD002001F07CFD5D2001F06A
:1026A00079FD002001F076FD742001F073FD00201B
:1026B00001F070FD842001F06DFD002001F06AFD45
:1026C000932001F067FD002001F064FDA22001F0DD
:1026D00061FD002001F05EFDB32001F05BFD0020F4
:1026E00001F058FDBE2001F055FD002001F052FD23
:1026F000C42001F04FFD002001F04CFDCD2001F081
:1027000049FD002001F046FDD32001F043FD0020EB
:1027100001F040FDDD2001F03DFD002001F03AFD1B
:10272000F32001F037FD002001F034FDE52001F039
:1027300037FD002001F02EFD002001F02BFD0020D0
:1027400001F028FD002001F025FD022001F022FD0E
:10275000002001F01FFD292001F01CFD002001F0E8
:1027600019FD3C2001F016FD002001F013FD4B2067
:1027700001F010FD002001F00DFD5D2001F00AFDCB
:10278000002001F007FD742001F004FD002001F09D
:1027900001FD842001F0FEFC002001F0FBFC9320F1
:1027A00001F0F8FC002001F0F5FCA22001F0F2FCA1
:1027B000002001F0EFFCB32001F0ECFC002001F060
:1027C000E9FCBE2001F0E6FC002001F0E3FCC4209F
:1027D00001F0E0FC002001F0DDFCCD2001F0DAFC8E
:1027E000002001F0D7FCD32001F0D4FC002001F040
:1027F000D1FCDC2001F0CEFC002001F0CBFCF3206A
:1028000001F0C8FC002001F0C5FCE62001F0C8FC86
:10281000112001F0BFFC002001F0BCFC342001F0CD
:10282000B9FC002001F0B6FC562001F0B3FC0020FA
:1028300001F0B0FC762001F0ADFC002001F0AAFC14
:10284000772001F0A7FC002001F0A4FC662001F035
:10285000A1FC002001F09EFC882001F09BFC0020E0
:1028600001F098FC992001F095FC002001F092FC09
:10287000BB2001F08FFC002001F08CFC992001F0BE
:1028800089FC002001F086FC662001F083FC00201A
:1028900001F080FC552001F07DFC002001F07AFC65
:1028A000552001F077FC002001F074FC452001F078
:1028B00071FC002001F06EFC432001F06BFC002055
:1028C00001F068FC442001F065FC002001F062FC8E
:1028D000E72001F065FC322001F05CFC002001F0F3
:1028E00059FC552001F056FC002001F053FC7620E5
:1028F00001F050FC002001F04DFC662001F04AFC84
:10290000002001F047FC672001F044FC002001F0AA
:1029100041FC672001F03EFC002001F03BFC8720D9
:1029200001F038FC002001F035FC992001F032FC68
:10293000002001F02FFCBB2001F02CFC002001F056
:1029400029FC992001F026FC002001F023FC7720CF
:1029500001F020FC002001F01DFC442001F01AFCD5
:10296000002001F017FC562001F014FC002001F0BB
:1029700011FC232001F00EFC002001F00BFC3320A1
:1029800001F008FC002001F005FC452001F002FCEC
:10299000002001F0FFFBE82001F002FC002001F024
:1029A000F9FB002001F0F6FB992001F0F3FB002079
:1029B00001F0F0FB872001F0EDFB002001F0EAFBC5
:1029C000882001F0E7FB002001F0E4FB772001F014
:1029D000E1FB002001F0DEFB662001F0DBFB0020C4
:1029E00001F0D8FB882001F0D5FB002001F0D2FBDC
:1029F000AA2001F0CFFB002001F0CCFBBB2001F0AE
:102A0000C9FB002001F0C6FB992001F0C3FB0020A8
:102A100001F0C0FB662001F0BDFB002001F0BAFB15
:102A2000552001F0B7FB002001F0B4FB552001F068
:102A3000B1FB002001F0AEFB442001F0ABFB002015
:102A400001F0A8FB442001F0A5FB002001F0A2FB4F
:102A5000552001F09FFB002001F09CFBE92001F0D4
:102A60009FFBAA2001F096FB002001F093FB0020C1
:102A700001F090FB002001F08DFB002001F090FBA5
:102A8000AA2001F087FBCF2001F08AFB002001F093
:102A900081FB002001F07EFB002001F07BFB002089
:102AA00001F078FB002001F075FB002001F072FBC3
:102AB000002001F06FFB002001F06CFB002001F012
:102AC00069FB002001F066FB002001F063FB0020A1
:102AD00001F060FB002001F05DFB002001F05AFBDB
:102AE000002001F057FB002001F054FB002001F012
:102AF00051FBF02001F054FB002001F04BFB502073
:102B000001F048FB002001F045FB002001F042FBF2
:102B1000002001F03FFBF32001F042FB002001F018
:102B200039FBF92001F03CFB062001F033FB1020BB
:102B300001F030FB292001F02DFB002001F02AFBE1
:102B40003A2001F02DFB552001F024FB112001F06B
:102B500027FB6420FDF724FD292001F021FB35200F
:102B600001F01EFB002001F015FB512001F018FBC5
:102B7000FF2001F00FFB532001F012FB2C2001F08D
:102B800009FB552001F00CFB822001F003FB2C20F7
:102B900001F006FB01F048B8FE48808845F210516C
:102BA00088427DD155214FF4704001F009FBAA21E4
:102BB0004FF2010001F004FB52214FF2020001F03C
:102BC000FFFA08214FF2030001F0FAFA01214FF257
:102BD000040001F0F5FA0D214FF4304001F0F0FA55
:102BE0000D214BF2010001F0EBFA0D214BF2020036
:102BF00001F0E6FA34214FF4364001F0E1FA3421D5
:102C00004BF2016001F0DCFA34214BF2026001F07A
:102C1000D7FA0D214FF4314001F0D2FA0D214BF2D9
:102C2000011001F0CDFA0D214BF2021001F0C8FAAB
:102C300034214FF4374001F0C3FA34214BF20170D4
:102C400001F0BEFA34214BF2027001F0B9FA002112
:102C50004FF4324001F0B4FA00214BF2012001F0B0
:102C6000AFFA00214BF2022001F0AAFA24214FF41E
:102C7000384001F0A5FA24214BF6010001F0A0FA3A
:102C800024214BF6020001F09BFA01214FF43F4052
:102C900001F096FA0F214FF4334001F091FA00E071
:102CA000FDE30F214BF2013001F08AFA0F214BF2C4
:102CB000023001F085FA34214FF4394001F080FAF6
:102CC00034214BF6011001F07BFA34214BF602104F
:102CD00001F076FA08214FF4354001F071FA08212D
:102CE0004BF2015001F06CFA08214BF2025001F056
:102CF00067FA03214FF4424001F062FA24214FF4B5
:102D00003A4001F05DFA24214BF6012001F058FA17
:102D100024214BF6022001F053FA00214FF43C40ED
:102D200001F04EFA78214BF6014001F049FA0021FA
:102D30004BF6024001F044FA00214FF43D4001F00F
:102D40003FFA78214BF6015001F03AFA00214BF698
:102D5000025001F035FA00214FF43E4001F030FA04
:102D600064214BF6016001F02BFA00214FF4514031
:102D700001F026FA33214DF2011001F021FA002171
:102D80004DF2021001F01CFA34214DF2031001F053
:102D900017FA00214DF2041001F012FA3A214DF217
:102DA000051001F00DFA00214DF2061001F008FAAD
:102DB0004A214DF2071001F003FA00214DF20810EC
:102DC00001F0FEF95C214DF2091001F0F9F9002142
:102DD0004DF20A1001F0F4F981214DF20B1001F0CF
:102DE000EFF900214DF20C1001F0EAF9A6214DF2A5
:102DF0000D1001F0E5F900214DF20E1001F0E0F99F
:102E0000E5214DF20F1001F0DBF901214DF2101018
:102E100001F0D6F913214DF2111001F0D1F9012181
:102E20004DF2121001F0CCF954214DF2131001F0C3
:102E3000C7F901214DF2141001F0C2F982214DF2BF
:102E4000151001F0BDF901214DF2161001F0B8F98D
:102E5000CA214DF2171001F0B3F902214DF21810FA
:102E600001F0AEF900214DF2191001F0A9F902218B
:102E70004DF21A1001F0A4F901214DF21B1001F0DE
:102E80009FF902214DF21C1001F09AF934214DF204
:102E90001D1001F095F902214DF21E1001F090F97C
:102EA00067214DF21F1001F08BF902214DF2201025
:102EB00001F086F984214DF2211001F081F90221FF
:102EC0004DF2221001F07CF9A4214DF2231001F003
:102ED00077F902214DF2241001F072F9B7214DF279
:102EE000251001F06DF902214DF2261001F068F96C
:102EF000CF214DF2271001F063F902214DF2281085
:102F000001F05EF9DE214DF2291001F059F902219C
:102F10004DF22A1001F054F9F2214DF22B1001F07C
:102F20004FF902214DF22C1001F04AF9FE214DF229
:102F30002D1001F045F903214DF22E1001F040F95A
:102F400010214DF22F1001F03BF903214DF230100A
:102F500001F036F933214DF2311001F031F903213E
:102F60004DF2321001F02CF96D214DF2331001F0C9
:102F700027F900214FF4524001F022F933214DF29C
:102F8000012001F01DF900214DF2022001F018F995
:102F9000342101E0901A00204DF2032001F010F9D5
:102FA00000214DF2042001F00BF93A214DF20520E9
:102FB00001F006F900214DF2062001F001F94A2145
:102FC0004DF2072001F0FCF800214DF2082001F03D
:102FD000F7F85C214DF2092001F0F2F800214DF2E2
:102FE0000A2001F0EDF881214DF20B2001F0E8F804
:102FF00000214DF20C2001F0E3F8A6214DF20D2046
:1030000001F0DEF800214DF20E2001F0D9F8E521A3
:103010004DF20F2001F0D4F801214DF2102001F003
:10302000CFF813214DF2112001F0CAF801214DF221
:10303000122001F0C5F854214DF2132001F0C0F820
:1030400001214DF2142001F0BBF882214DF2152030
:1030500001F0B6F801214DF2162001F0B1F8CA21B5
:103060004DF2172001F0ACF802214DF2182001F0CA
:10307000A7F800214DF2192001F0A2F802214DF22B
:103080001A2001F09DF801214DF21B2001F098F863
:1030900002214DF21C2001F093F834214DF21D2045
:1030A00001F08EF802214DF21E2001F089F867210F
:1030B0004DF21F2001F084F802214DF2202001F092
:1030C0007FF884214DF2212001F07AF802214DF29F
:1030D000222001F075F8A4214DF2232001F070F8B0
:1030E00002214DF2242001F06BF8B7214DF225208A
:1030F00001F066F802214DF2262001F061F8CF219F
:103100004DF2272001F05CF802214DF2282001F059
:1031100057F8DE214DF2292001F052F802214DF23C
:103120002A2001F04DF8F2214DF22B2001F048F851
:1031300002214DF22C2001F043F8FE214DF22D200A
:1031400001F03EF803214DF22E2001F039F8102154
:103150004DF22F2001F034F803214DF2302001F020
:103160002FF833214DF2312001F02AF803214DF2DE
:10317000322001F025F86D214DF2332001F020F8C6
:1031800000214FF4534001F01BF833214DF2013080
:1031900001F016F800214DF2023001F011F834214F
:1031A0004DF2033001F00CF800214DF2043001F033
:1031B00007F83A214DF2053001F002F800214DF2F6
:1031C000063000F0FDFF4A214DF2073000F0F8FF15
:1031D00000214DF2083000F0F3FF5C214DF2093080
:1031E00000F0EEFF00214DF20A3000F0E9FF8121EE
:1031F0004DF20B3000F0E4FF00214DF20C3000F0F6
:10320000DFFFA6214DF20D3000F0DAFF00214DF274
:103210000E3000F0D5FFE5214DF20F3000F0D0FF69
:1032200001214DF2103000F0CBFF13214DF211308F
:1032300000F0C6FF01214DF2123000F0C1FF542111
:103240004DF2133000F0BCFF01214DF2143000F0BC
:10325000B7FF82214DF2153000F0B2FF01214DF28F
:10326000163000F0ADFFCA214DF2173000F0A8FF74
:1032700002214DF2183000F0A3FF00214DF2193069
:1032800000F09EFF02214DF21A3000F099FF01215B
:103290004DF21B3000F094FF02214DF21C3000F083
:1032A0008FFF34214DF21D3000F08AFF02214DF2D4
:1032B0001E3000F085FF67214DF21F3000F080FFC7
:1032C00002214DF2203000F07BFF84214DF22130AD
:1032D00000F076FF02214DF2223000F071FFA421B0
:1032E0004DF2233000F06CFF02214DF2243000F04B
:1032F00067FFB7214DF2253000F062FF02214DF249
:10330000263000F05DFFCF214DF2273000F058FF4E
:1033100002214DF2283000F053FFDE214DF229301A
:1033200000F04EFF02214DF22A3000F049FFF22159
:103330004DF22B3000F044FF02214DF22C3000F012
:103340003FFFFE214DF22D3000F03AFF03214DF2F8
:103350002E3000F035FF10214DF22F3000F030FFFD
:1033600003214DF2303000F02BFF33214DF231308C
:1033700000F026FF03214DF2323000F021FF6D21D5
:103380004DF2333000F01CFF00214FF4544000F0A8
:1033900017FF33214DF2014000F012FF00214DF2E2
:1033A000024000F00DFF34214DF2034000F008FF11
:1033B00000214DF2044000F003FF3A214DF2054098
:1033C00000F0FEFE00214DF2064000F0F9FE4A2119
:1033D0004DF2074000F0F4FE00214DF2084000F0ED
:1033E000EFFE5C214DF2094000F0EAFE00214DF2B3
:1033F0000A4000F0E5FE81214DF20B4000F0E0FEB6
:1034000000214DF20C4000F0DBFEA6214DF20D40F4
:1034100000F0D6FE00214DF20E4000F0D1FEE52175
:103420004DF20F4000F0CCFE01214DF2104000F0B3
:10343000C7FE13214DF2114000F0C2FE01214DF2F2
:10344000124000F0BDFE54214DF2134000F0B8FED2
:1034500001214DF2144000F0B3FE82214DF21540DF
:1034600000F0AEFE01214DF2164000F0A9FECA2187
:103470004DF2174000F0A4FE02214DF2184000F07A
:103480009FFE00214DF2194000F09AFE02214DF2FC
:103490001A4000F095FE01214DF21B4000E005E3CB
:1034A00000F08EFE02214DF21C4000F089FE342116
:1034B0004DF21D4000F084FE02214DF21E4000F04E
:1034C0007FFE67214DF21F4000F07AFE02214DF28F
:1034D000204000F075FE84214DF2214000F070FE86
:1034E00002214DF2224000F06BFEA4214DF2234058
:1034F00000F066FE02214DF2244000F061FEB7218B
:103500004DF2254000F05CFE02214DF2264000F015
:1035100057FECF214DF2274000F052FE02214DF21E
:10352000284000F04DFEDE214DF2294000F048FE1B
:1035300002214DF22A4000F043FEF2214DF22B40D1
:1035400000F03EFE02214DF22C4000F039FEFE213B
:103550004DF22D4000F034FE03214DF22E4000F0DC
:103560002FFE10214DF22F4000F02AFE03214DF2D4
:10357000304000F025FE33214DF2314000F020FEB6
:1035800003214DF2324000F01BFE6D214DF233401D
:1035900000F016FE00214FF4554000F011FE3321DB
:1035A0004DF2015000F00CFE00214DF2025000F0EF
:1035B00007FE34214DF2035000F002FE00214DF2CF
:1035C000045000F0FDFD3A214DF2055000F0F8FDE9
:1035D00000214DF2065000F0F3FD4A214DF2075054
:1035E00000F0EEFD00214DF2085000F0E9FD5C21F5
:1035F0004DF2095000F0E4FD00214DF20A5000F0B8
:10360000DFFD81214DF20B5000F0DAFD00214DF27B
:103610000C5000F0D5FDA6214DF20D5000F0D0FD6C
:1036200000214DF20E5000F0CBFDE5214DF20F5080
:1036300000F0C6FD01214DF2105000F0C1FD132134
:103640004DF2115000F0BCFD01214DF2125000F07E
:10365000B7FD54214DF2135000F0B2FD01214DF29F
:10366000145000F0ADFD82214DF2155000F0A8FD80
:1036700001214DF2165000F0A3FDCA214DF2175062
:1036800000F09EFD02214DF2185000F099FD00213E
:103690004DF2195000F094FD02214DF21A5000F045
:1036A0008FFD01214DF21B5000F08AFD02214DF2E9
:1036B0001C5000F085FD34214DF21D5000F080FDBE
:1036C00002214DF21E5000F07BFD67214DF21F508C
:1036D00000F076FD02214DF2205000F071FD8421B2
:1036E0004DF2215000F06CFD02214DF2225000F00D
:1036F00067FDA4214DF2235000F062FD02214DF23E
:10370000245000F05DFDB7214DF2255000F058FD2A
:1037100002214DF2265000F053FDCF214DF22750EB
:1037200000F04EFD02214DF2285000F049FDDE214F
:103730004DF2295000F044FD02214DF22A5000F0D4
:103740003FFDF2214DF22B5000F03AFD02214DF2E7
:103750002C5000F035FDFE214DF22D5000F030FDD3
:1037600003214DF22E5000F02BFD10214DF22F5071
:1037700000F026FD03214DF2305000F021FD3321F1
:103780004DF2315000F01CFD03214DF2325000F09B
:1037900017FD6D214DF2335000F012FD00214FF462
:1037A000564000F00DFD33214DF2016000F008FDA0
:1037B00000214DF2026000F003FD34214DF2036060
:1037C00000F0FEFC00214DF2046000F0F9FC3A210B
:1037D0004DF2056000F0F4FC00214DF2066000F0AF
:1037E000EFFC4A214DF2076000F0EAFC00214DF2A7
:1037F000086000F0E5FC5C214DF2096000F0E0FC9F
:1038000000214DF20A6000F0DBFC81214DF20B60DB
:1038100000F0D6FC00214DF20C6000F0D1FCA62196
:103820004DF20D6000F0CCFC00214DF20E6000F076
:10383000C7FCE5214DF20F6000F0C2FC01214DF202
:10384000106000F0BDFC13214DF2116000F0B8FCD7
:1038500001214DF2126000F0B3FC54214DF21360CF
:1038600000F0AEFC01214DF2146000F0A9FC8221B1
:103870004DF2156000F0A4FC01214DF2166000F03D
:103880009FFCCA214DF2176000F09AFC02214DF214
:10389000186000F095FC00214DF2196000F090FCDA
:1038A00002214DF21A6000F08BFC01214DF21B60E9
:1038B00000F086FC02214DF21C6000F081FC3421F6
:1038C0004DF21D6000F07CFC02214DF21E6000F004
:1038D00077FC67214DF21F6000F072FC02214DF26F
:1038E000206000F06DFC84214DF2216000F068FC46
:1038F00002214DF2226000F063FCA4214DF223600E
:1039000000F05EFC02214DF2246000F059FCB7216A
:103910004DF2256000F054FC02214DF2266000F0CB
:103920004FFCCF214DF2276000F04AFC02214DF2FE
:10393000286000F045FCDE214DF2296000F040FCDB
:1039400002214DF22A6000F03BFCF2214DF22B6087
:1039500000F036FC02214DF22C6000F031FCFE211B
:103960004DF22D6000F02CFC03214DF22E6000F092
:1039700027FC10214DF22F6000F022FC03214DF2B4
:10398000306000F01DFC33214DF2316000F018FC76
:1039900003214DF2326000F013FC6D214DF23360D3
:1039A00000F00EFC55214FF4704000F009FCAA21F4
:1039B0004FF2010000F004FC52214FF2020000F02F
:1039C000FFFB08214FF2030000F0FAFB00214FF249
:1039D000040000F0F5FBCC214FF4314000F0F0FB87
:1039E00000214BF2011000F0EBFB05214FF43640B3
:1039F00000F0E6FB70214FF4374000F0E1FB70214E
:103A00004BF2017000F0DCFB01214FF4384000F074
:103A1000D7FB03214BF6010000F0D2FB03214BF64C
:103A2000020000F0CDFB03214BF6030000F0C8FBC1
:103A300002214FF43C4000F0C3FB00214BF6014053
:103A400000F0BEFB00214BF6024000F0B9FBD02194
:103A50004FF4494000F0B4FB02214CF6011000F095
:103A6000AFFB50214CF6021000F0AAFB50214CF69F
:103A7000031000F0A5FB50214CF6041000F0A0FB51
:103A800000214FF4545000F09BFB55214FF4685037
:103A900000F096FB4FF4885000F082FB0120FCF709
:103AA0007FFD4FF4245000F07BFBBDE0654880882B
:103AB00041F663118842F8D1E22000F071FB1D202D
:103AC00000F068FB022000F065FB042000F062FBC0
:103AD0000120FCF765FDE02000F062FB012000F012
:103AE00059FB0A20FCF75CFDE02000F059FB0320A5
:103AF00000F050FB0C20FCF753FD012000F050FBC0
:103B00000A20FCF74DFDE62000F04AFB2F2000F0D4
:103B100041FBFF2000F03EFBFF2000F03BFBB0200C
:103B200000F03EFB202000F035FB002000F032FBCF
:103B3000032000F02FFB40F21F3000F02BFB012090
:103B400000F028FB40F2DF1000F024FB002000F022
:103B500021FBB42000F024FB042000F01BFB40F20A
:103B60001F4000F017FB002000F014FB2E2000F097
:103B700011FB002000F00EFB002000F00BFB0020EA
:103B800000F008FB002000F005FBB62000F008FB69
:103B9000022000F0FFFA4FF4037000F0FBFA00205F
:103BA00000F0F8FA172000F0F5FA152000F0F2FA0C
:103BB000002000F0EFFA002000F0ECFAF02000F016
:103BC000EFFA032000F0E6FA292000F0E9FAD0200D
:103BD00000F0E6FA002000F0DDFABE2000F0E0FA86
:103BE000052000F0D7FAFE2000F0D4FA012000F002
:103BF000D1FA002000F0CEFA002000F0CBFA00202D
:103C000000F0C8FAB82000F0CBFA032000F0C2FAA6
:103C1000012000F0BFFABA2000F0C2FA012000F043
:103C2000B9FA642000F018F80120FDF749FC0122E0
:103C300011460548FCF702FE4FF6FF70FDF726FC23
:103C400010BD0000901A0020000C014001490888B6
:103C5000704700000008006C2DE9F0470446BE20C4
:103C600000F09EFA052000F095FA204602F0A1F936
:103C700007464FF066320C4B02F0AEF9054602F0F3
:103C80006BF91FFA80F9484600F084FA012000F031
:103C900081FAFF2000F07EFA002000F07BFA00207D
:103CA00000F078FABDE8F0876666044070B5044617
:103CB0000023002689488079012805D1874880881B
:103CC00041F66311884208D184488079F0B983486D
:103CD000808841F66311884218D1082C15D2DFE89C
:103CE00004F00406080A0C0E101206240DE0072446
:103CF0000BE0042409E0052407E0012405E000248A
:103D000003E0032401E0022400BF00BF082C1CD202
:103D1000DFE804F00406090C0F12151800BF14E0C8
:103D200043F0800311E043F040030EE043F0C00392
:103D30000BE043F0200308E043F0600305E043F0AC
:103D4000A00302E043F0E00300BF00BF63488088A7
:103D500045F21051884202D14FF4585600E0362601
:103D60005E48808849F24131884205D05B488088AE
:103D700047F28971884201D143F008031946304661
:103D800000F01EFA5548808841F6631188421DD024
:103D900003F0200068B151480088504949888842A2
:103DA00014DA4E48058840884C490880084645800A
:103DB0000CE04A48008849494988884206DD47485E
:103DC00005884088454908800846458043488088E2
:103DD00045F21051884252D14049488900F0E0F93B
:103DE000002000F0D7F93D494989491C88B200F00C
:103DF000D7F9002000F0CEF938494989891C88B2EA
:103E000000F0CEF935490988491EC1F30F2000F0B2
:103E1000C1F932494989C91C88B200F0C1F92F495A
:103E20000978491EC8B200F0B5F92C49888900F01C
:103E3000B7F9002000F0AEF928498989491C88B2F9
:103E400000F0AEF9002000F0A5F924498989891C09
:103E500088B200F0A5F921494988491EC1F30F2015
:103E600000F098F91D498989C91C88B200F098F9B9
:103E70001A498978491EC8B200F08CF92DE017491B
:103E8000488900F08DF9002000F084F9002000F04E
:103E900081F912490988491EC1F30F2000F07AF90F
:103EA0000E490978491EC8B200F074F90B49888997
:103EB00000F076F9002000F06DF9002000F06AF9BA
:103EC00006494988491EC1F30F2000F063F90349F0
:103ED0008978491EC8B200F05DF970BD901A0020C3
:103EE00000B502460B464548808841F6631188427A
:103EF00047D142488079A8B940480088401E801ABE
:103F000082B23E49488900F04BF9002000F042F9A6
:103F1000002000F03FF9101200F03CF9D0B200F0A0
:103F200039F916E03549488900F03AF9101200F0E5
:103F300031F9D0B200F02EF930490988491EC1F399
:103F40000F2000F027F92D490978491EC8B200F06A
:103F500021F92A49888900F023F9181200F01AF98A
:103F6000D8B200F017F925494988491EC1F30F203E
:103F700000F010F921498978491EC8B200F00AF909
:103F80003AE01E48808845F21051884220D11B49F2
:103F9000488900F005F9101200F0FCF8174949892A
:103FA000491C88B200F0FCF8D0B200F0F3F81349D5
:103FB000888900F0F5F8181200F0ECF80F498989AB
:103FC000491C88B200F0ECF8D8B200F0E3F813E036
:103FD0000A49488900F0E4F8101200F0DBF8D0B28A
:103FE00000F0D8F80549888900F0DAF8181200F0D6
:103FF000D1F8D8B200F0CEF800BD0000901A002031
:104000002DE9F84F80460E4617461C46B34620461B
:10401000E31704EB5373DB1021464FEAE47C04EB17
:104020005C7C4FEAEC0CA4EBCC0CBCF1000F02D092
:104030004FF0010C01E04FF0000C6344224604EB0A
:10404000D27C4FEA6C0C03FB0CF3DBB20093A7F1BC
:104050002000C7B2002558E00C2C07D107EB470021
:104060002C4901EB800010F8059013E0102C05D1CD
:10407000294800EB071010F805900BE0182C07D129
:1040800007EBC700254901EB800010F8059001E01F
:10409000BDE8F88F4FF0000A31E009F0800038B138
:1040A0001F48008882B231464046FDF7A1FA08E079
:1040B0000A9830B91B48008882B231464046FDF765
:1040C00097FA4FEA49604FEA1069701C86B21648A9
:1040D0004088B04200DCDBE7A6EB0B00A0420AD12F
:1040E0005E4608F101001FFA80F80F48008840453D
:1040F00000DCCDE706E00AF1010000F0FF0ABAF1AA
:10410000080FCADB00BF681CC5B200988542A3DB5C
:1041100000BFBDE72262000896660008866C0008B2
:104120009400002098000020901A00202DE9F84704
:1041300004460D4690469946DDE9096704F0FF0AFA
:1041400008EB04001FFA80F809EB05001FFA80F95C
:1041500016E0444502DB5446A81985B24D4500DB04
:1041600014E0002000903A78334629462046FFF7B5
:1041700047FF304606EBD07104EB61018CB27F1C27
:1041800038787E2802DC38782028E2DA00BFBDE8E3
:10419000F887000000BF0149088070470008006CE4
:1041A00000BF014908807047FE07006C0248008983
:1041B0000249088070470000901A0020FE07006C3A
:1041C000024A1080921C118070470000FE07006CAC
:1041D00010B5044A0021044800F078FB0349086048
:1041E00010BD0000D4610008FD430008000000205D
:1041F00010B58EB01C216846FCF7A1F81C2107A859
:10420000FCF79DF81C484FF02041102201601B492B
:104210004160062181600021C160C0E90412816112
:10422000C16113020162C0E909139302C0E90B13D3
:1042300041638163022000900F20CDE9010203ACAD
:10424000112384E80E0004240691CDE9074009AC4F
:10425000092084E80F000D9107AA69460648FCF77B
:104260003FFE08B1FCF725F90548C16941F48061BA
:10427000C1610EB010BD00009C000020040100A030
:10428000000001402DE9F04385B000252F4800953E
:10429000019502950395816941F040018161816931
:1042A00001F040010491816941F008018161816957
:1042B00001F008010491816941F480718161816993
:1042C00001F480710491816941F02001816181696B
:1042D00001F020010491816941F00401816180694C
:1042E000DFF86C8000F0040004900022202140469A
:1042F000FCF7A4FADFF85C90002201214846FCF7A5
:104300009DFA012220214846FCF798FA202701AAAD
:1043100001240226009782E8700069464046FCF7B7
:1043200091F90094CDE90146694648460396FCF7A9
:1043300089F90320CDE90250CDE900746946484669
:10434000FCF780F905B0BDE8F083000000100240E2
:1043500000180140000C014010B58EB000240794F5
:10436000089409940A940B941C2168460C94FBF75A
:10437000E6FF20481E4901604721C0E9011440F2D0
:10438000E731C0E9031480218161FCF71DFE08B10B
:10439000FCF78FF84FF48050079007A91548FCF7F9
:1043A0008BFE08B1FCF785F81248FDF734F808B128
:1043B000FCF77FF80B940BA90E480C94FCF7C6FD94
:1043C00008B1FCF776F86020009040F2F310CDE9D8
:1043D00001040822694607480494FCF7B6FF08B1B7
:1043E000FCF767F80348FCF789FF0EB010BD00002A
:1043F00000080040E4000020FEE7FEE7012000F096
:104400000FFAFBE710B5502080F31188BFF34F8FF0
:10441000BFF36F8F01F0FEFB18B104494FF08050DD
:104420000860002080F3118810BD000004ED00E05A
:1044300030B58FB028216846FBF781FF14210AA808
:10444000FBF77DFF01210804CDE900100024029450
:1044500002250491CDE907504FF4E0100990684619
:10446000FCF7AEFB08B172B6FEE70F20CDE90A05F6
:104470004FF48060CDE90C4002210AA80E94FCF7AD
:10448000B3FA002801D072B6FEE70FB030BD704716
:104490000148FCF780BE00002C010020F0B5026846
:1044A0001C4B1D4D1D4E1E4F1E4C4FF0804C984214
:1044B00009D0A04207D0604505D0A84203D0B04241
:1044C00001D0B84204D122F0700E4A6842EA0E02CE
:1044D000984209D0A04207D0604505D0A84203D039
:1044E000B04201D0B84203D122F44075CA682A43D1
:1044F0004D6922F080022A4302608A68C2620A681B
:104500008262984201D0A04201D109690163012170
:104510004161F0BD002C0140000400400008004053
:10452000000C00400034014010B5846842EA0322C8
:1045300024F47F440A432243826010BD826822F043
:1045400070020A4342F0070181607047F0B5036AC8
:10455000026A22F00102026242688469124E24F06B
:1045600073050C682C4323F002058B682B430D4D1B
:10457000A84201D0B04205D123F00807CB683B43E5
:1045800023F00403A84201D0B04205D14D6922F4C2
:10459000407215438A692A434260846149684163D5
:1045A0000362F0BD002C014000340140F0B5026A06
:1045B000036A23F010030362436884690D6824F4DE
:1045C000E64444EA05248D6822F0200242EA0512FE
:1045D0000F4D104EA84201D0B04206D1CF6822F054
:1045E000800242EA071222F04002A84201D0B04203
:1045F00007D14D6923F4406343EA85038D6943EA9B
:10460000850343608461496881630262F0BD0000F4
:10461000002C014000340140F0B5026A036A23F423
:10462000807303624368C46922F4007224F0730546
:104630000C68124E2C438D6842EA05220E4DA842AA
:1046400001D0B04206D1CF6822F4006242EA0722CC
:1046500022F48062A84201D0B04207D14D6923F410
:10466000405343EA05138D6943EA05134360C4616F
:104670004968C1630262F0BD002C01400034014072
:1046800030B5046A026A22F4805202624268C36949
:104690000D6823F4E64343EA05238D6824F40054AF
:1046A00044EA0534084DA84202D0084DA84204D17E
:1046B0004D6922F4804242EA85124260C361496832
:1046C0000164046230BD0000002C01400034014050
:1046D00010B5036A046A24F001040462846924F0BA
:1046E000F00444EA021423F00A020A4384610262DD
:1046F00010BD10B5036A046A24F0100404628469D2
:1047000023F0A00324F4704444EA023243EA011186
:104710008261016210BDFEE70907090E002804DB73
:1047200000F1E02080F80014704700F00F0000F165
:10473000E02080F8141D70471CB5FCF793F8FFF7D4
:1047400077FEFFF79FFDFFF707FEFFF751FDFCF730
:10475000C7FF1C494FF47840102408601AA0CDE927
:1047600000402346C8220A211E20FFF7DFFC1BA0C1
:10477000CDE900401E211023C8220846FFF7D6FCD1
:104780001BA0CDE900401023C82232211E20FFF7D4
:10479000CDFC1CA0CDE900401023C82246211E20DC
:1047A000FFF7C4FC1BA0CDE900401023C8225A210A
:1047B0001E20FFF7BBFC00F04DF8FFF709FD00F0ED
:1047C00065F8FEE79400002041544B2053544D33CC
:1047D00032463130332F463430370000467265653B
:1047E00052544F53204578616D7020362D310000B2
:1047F0005461736B20437265617420616E64204460
:10480000656C000041544F4D40414C49454E544564
:104810004B000000323031362F31312F323500005D
:1048200010B5EFF3058149B9EFF3108131B90849AB
:104830000968022905D1EFF3118111B16FF0050468
:1048400003E0002408B100F0E3FD204610BD0000A5
:104850006C000020EFF3058058B9EFF3108040B9E9
:1048600009490868022801D030B109E0EFF311804E
:1048700030B16FF0050070470120086000207047DC
:104880004FF0FF30704700006C00002010B5EFF3D0
:10489000058060B9EFF3108048B90B490868022819
:1048A00002D0012806D00BE0EFF3118040B16FF089
:1048B000050010BD0220086000F012FE002010BDAF
:1048C0004FF0FF3010BD00006C000020F0B585B047
:1048D0004FEA01034FF00004EFF305810394A1BBFD
:1048E000EFF3108189BB21490968022902D1EFF356
:1048F000118151BB48B3802618218DF8104004ADBA
:1049000042B3176807B13D4697691FB139467F1E0C
:10491000382F02D21779FF0702D0002005B0F0BD72
:10492000576907B1BE08D2F808C0BCF1000F0DD01E
:10493000D4685C2C18D312693AB137B18DE80610EF
:104940003246294601F027F903900DE0D7685FB998
:1049500012694AB903AACDE90012B2B2294601F0A0
:10496000EDF8012800D003940398D7E76C000020ED
:104970002DE9F041134C0F46054666692068001D7D
:1049800000F016FC681C07D137B12168BDE8F04182
:104990000D48091D00F05CBC20683544B5424560F7
:1049A000216805D2A068BDE8F041091D00F038BCBF
:1049B0006068091D00F034FC206B854200D225633D
:1049C000BDE8F0811C000020640600202DE9F041C4
:1049D000054600F049FC2D4C2069401C20612068F0
:1049E0002B4F10B1E06930B32BE02560206901281E
:1049F00027D1002606EB860007EB800000F002FCC2
:104A0000761C382EF6D3234800F0FCFB21481430E6
:104A100000F0F8FB1F48283000F0F4FB1D483C3044
:104A200000F0F0FB1B48503000F0ECFB19486060D0
:104A30001430A06005E02068E96AC06A884200D8A6
:104A40002560E06A401CE0626864E86AA169884207
:104A500000D9A06100EB800007EB8000291D00F069
:104A6000F7FB00F021FCE06900280CD02068E96A1F
:104A7000C06A884207D208494FF080500860BFF3EF
:104A80004F8FBFF36F8FBDE8F08100001C00002046
:104A9000B40100201406002004ED00E038B500F059
:104AA000E3FB104CA068C8B90F4800F0ABFB0E4800
:104AB000143000F0A7FB0C482060143060600A4BF3
:104AC00000202833009003F1500210210A2000F04A
:104AD000D9FDA06010B105A100F064FCBDE838402C
:104AE00000F0E2BB5800002078060020546D72519F
:104AF0000000000030B4026C0B46002A0BD0C168E5
:104B00001144C1604468A14201D30168C16030BC56
:104B10001846FBF7C7BB30BC70472DE9F041856BE9
:104B2000174604460026026C82B1C7B1E068FBF765
:104B3000B9FBE168206C091AE1602268914202D257
:104B40006168081AE060022F16D017E02068A8B943
:104B5000606801F0C3F80646002060600EE0A068BF
:104B6000FBF7A0FB216CA0680844A0606168884244
:104B700004D32068A06001E005B16D1E6D1CA56323
:104B80003046BDE8F08110B5044690F8590058B1A0
:104B900001280CD002280FD0502080F31188BFF3D9
:104BA0004F8FBFF36F8FFEE7206B00F091FB204625
:104BB000BDE8104000F08CBB10BD000010484FF461
:104BC0004061420706D0C01D0D4920F00700411A80
:104BD000C1F540610B4A00230144C2E900030839D2
:104BE000103A21F0070111604B600B600B1AC0E90D
:104BF000001393604FF000405360D0607047000096
:104C0000480E002080000020144E154CA6F29C4750
:104C10004FF08058DFF84C9012E000BF00F024FB0A
:104C2000F068C568281D00F0C3FA2069401E2061A5
:104C3000E068401EE06000F037FB2846FFF7A3FF66
:104C4000E0680028EAD138680128F9D9C9F800805D
:104C5000BFF34F8FBFF36F8FF2E7000050060020C5
:104C60001C00002004ED00E070B51D46049C51B10D
:104C7000C4F80020C4E90F010121204600F036FDF0
:104C800084F84C5070BD2460F4E72DE9F0470E46DF
:104C9000DDE909841746824691009946089DA522C0
:104CA000206BFBF744FB6FF00301206B01EB8701E6
:104CB000084420F00707780707D0502080F31188B8
:104CC000BFF34F8FBFF36F8FFEE72218315C82F87E
:104CD0003410315C11B1401C1028F6D3002684F842
:104CE0004360382D00D33725E562C4E91356201DF3
:104CF00000F093FA04F1180000F08FFA2461C5F176
:104D000038006462A061666584F858604A4651467E
:104D1000384600F03BFA2060B8F1000F01D0C8F827
:104D20000040BDE8F087000030B5114900E01146B1
:104D30000A688242FBD34B685C18844203D1406806
:104D400018444860084643681C18944209D1084C2E
:104D5000103C2468A24209D052681A4442600A6892
:104D600012680260814200D0086030BD0460F9E73B
:104D70008000002070B5002441600B4D006191421D
:104D800006D8D11A8269914206D2011D686807E0EF
:104D90009A4203D2994201D3012403E0011D2868FD
:104DA00000F03EFA204670BD5800002010B50446C1
:104DB00000F05AFAA06B28B15FF0000400F074FA1A
:104DC000204610BD0124F9E730B589B0304D55E0DB
:104DD0000498002806DADDE90601059A9047049850
:104DE00000284BDB069C606910B1201D00F0E0F943
:104DF00002A800F0B9F8024604980A283ED2DFE87B
:104E000000F00505053D263705053D260598A169F5
:104E1000034601442046FFF7ADFF00B3616A204618
:104E20008847E069012829D1002000900598A169F0
:104E3000002342181946204601F05AF878B950204C
:104E400080F31188BFF34F8FBFF36F8FFEE7059894
:104E5000A06128B1811813462046FFF78BFF0DE0B3
:104E6000502080F31188BFF34F8FBFF36F8FFEE7A1
:104E700094F82C0010B9204600F02AFA002204A968
:104E8000A86800F085FD0028A2D109B030BD00005F
:104E9000580000202DE9FC410F46054600F064FB58
:104EA00001A800F061F80446019818B100F08EFFE7
:104EB000BDE8FC81224EAFB170680068A8B300273E
:104EC000291B3A46B06800F081FA00F07FFF002805
:104ED000EED11C494FF080500860BFF34F8FBFF3F5
:104EE0006F8FE5E7A542EBD800F070FF30682746EA
:104EF000C068C468201D00F05BF9E069012810D18A
:104F0000A0692B4641193A462046FFF733FF40B1CE
:104F100000200346014600902A46204600F0E8FFA4
:104F200020B1616A20468847C2E707E0502080F33D
:104F30001188BFF34F8FBFF36F8FFEE70127BFE7E5
:104F40005800002004ED00E006484168096829B1D6
:104F50004168C968C9684968016370474FF0FF310B
:104F6000FAE700001C00002070B5054600F04CFE7A
:104F7000064E04463069844203D200F009F801204D
:104F800000E0002028602046346170BD58000020F9
:104F9000F8B5194D1FE0C068C4680668201D00F010
:104FA00007F9616A20468847E069012813D1A069A2
:104FB0003044B04206D924616060211D286800F0A9
:104FC0002FF908E0002003460146009032462046B3
:104FD00000F08EFF38B1286801680029DBD16968CC
:104FE000C5E90010F8BD502080F31188BFF34F8F42
:104FF000BFF36F8FFEE700005800002008484068AC
:10500000401C4FF0500080F3118804D0BFF34F8F45
:10501000BFF36F8FFEE7BFF34F8FBFF36F8FFEE7D6
:1050200088000020074C2068016841B1C068002159
:10503000D0F80000FFF72EFFFFF7C6FEF3E70121CF
:105040000020F7E7580000202DE9F041044600F069
:105050000BF994F9455004F1240609E0606A48B15F
:10506000304600F07BFE08B100F000FA6D1E6DB214
:10507000002DF3DC4FF0FF3684F8456000F014F9A2
:1050800000F0F2F894F9445004F1100709E02069A7
:1050900048B1384600F062FE08B100F0E7F96D1E35
:1050A0006DB2002DF3DC84F84460BDE8F04100F0FF
:1050B000FBB800002DE9F0410546002700F054FA46
:1050C000314E306808B9FFF779FDF06805424BD1E1
:1050D000C5B3083568070ED005F00700C0F1080019
:1050E0000544680707D0502080F31188BFF34F8F25
:1050F000BFF36F8FFEE72DB37068854234D8224826
:10510000103001460C6801E020460C466168A94257
:1051100002D221680029F7D131688C4224D0076877
:105120002168016060680837411B10290FD9601998
:10513000420708D0502080F31188BFF34F8FBFF390
:105140006F8FFEE710E041606560FFF7EDFD61687D
:105150007068401A7060B268904200D2B060F06827
:1051600001430020C4E9000100F030FE780707D0B9
:10517000502080F31188BFF34F8FBFF36F8FFEE78E
:105180003846BDE8F08100007000002010B5031F14
:105190004FF080741C601B1F21F001011960191F62
:1051A000024B0B60143940380A6010BDFD4F0008F7
:1051B000D0E9013201699A60D0E901235A604A6856
:1051C000824201D182684A60002202610868401E62
:1051D0000860086870470000034B036003F15C003F
:1051E000086080201060704790070020044B036027
:1051F00003F15C0008604FF480701060704700009D
:10520000EC09002000F108014FF0FF32C0E9011263
:10521000C160016100210160704700210161704798
:1052200030B50B685A1C02D000F1080202E0026996
:1052300004E02246546825689D42FAD953684B60C1
:1052400099608A60516008610168491C016030BD45
:1052500042684A6093688B60936859609160086106
:105260000168491C01607047502080F31188BFF32A
:105270004F8FBFF36F8F0A494868401C4860012870
:105280000CD10848006810F0FF0F07D0502080F3C1
:105290001188BFF34F8FBFF36F8FFEE77047000099
:1052A0008800002004ED00E00849486828B1401E4D
:1052B000486001D180F311887047502080F3118835
:1052C000BFF34F8FBFF36F8FFEE700008800002011
:1052D00070B5002827D0144DA0F108046168E86873
:1052E000014207D1502080F31188BFF34F8FBFF3E5
:1052F0006F8FFEE722683AB1502080F31188BFF328
:105300004F8FBFF36F8FFEE78143616000F02CF990
:1053100060686968084468602046FFF705FDBDE8DD
:10532000704000F053BD70BD700000204FF0E020D1
:1053300000210161816105494FF47A720968B1FB6E
:10534000F2F1491E416107210161704718000020F8
:1053500010B5FAF783FF114910280ED300F1E020B1
:1053600090F8F0030A78904207D2502080F3118819
:10537000BFF34F8FBFF36F8FFEE70948006889685E
:1053800000F4E060884207D9502080F31188BFF311
:105390004F8FBFF36F8FFEE710BD00008800002025
:1053A0000CED00E010B5084B002200BF53F832406E
:1053B0001CB1521C082AF9D310BD43F8321003EB7C
:1053C000C201486010BD00007401002070B5154690
:1053D0000E460446FFF748FF94F944100020491C8C
:1053E00001D184F8440094F94510491C01D184F896
:1053F0004500FFF759FFA06B28B92A46314604F152
:10540000240000F051F82046BDE87040FFF71CBEB4
:1054100010B5020014D00F48806B38B1502080F3D3
:105420001188BFF34F8FBFF36F8FFEE700F09CF83A
:1054300000211046FFF79CFA00F0C8FC002807D1B5
:1054400005494FF080500860BFF34F8FBFF36F8F57
:1054500010BD00001C00002004ED00E002498A6A33
:1054600002604969416070471C0000200149012029
:10547000486270471C00002010B50C4650B1094925
:1054800009681831FFF7CCFE2046BDE81040012125
:10549000FFF76EBA502080F31188BFF34F8FBFF330
:1054A0006F8FFEE71C00002070B514460D4668B1F2
:1054B0000A4909681831FFF7CBFE0CB14FF0FF35F0
:1054C00021462846BDE87040FFF752BA502080F3CD
:1054D0001188BFF34F8FBFF36F8FFEE71C000020D2
:1054E00030B587B00024039405AA04A903A8049446
:1054F000FFF772FEDDE903010094CDE901100023FE
:1055000015A11748059A00F046FB164D0028686360
:105510001FD000F0BDFC012809D0401C19D150203B
:1055200080F31188BFF34F8FBFF36F8FFEE75020DA
:1055300080F31188BFF34F8FBFF36F8F4FF0FF30B1
:1055400028630120E8616C6107B0BDE8304000F0DD
:1055500045B807B030BD000049444C45000000008C
:10556000094C00081C0000200248816B491C816323
:10557000704700001C000020164810B5816B11B167
:105580000121416210BD002141628169124A01E09E
:10559000B9B1491E01EB810352F82330002BF7D03B
:1055A00001EB810302EB830202F1080453685B689C
:1055B0005360A34201D15B685360DA680260816185
:1055C00010BD502080F31188BFF34F8FBFF36F8F52
:1055D000FEE700001C000020B40100201CB5264995
:1055E00008780190FF20087008788DF800009DF879
:1055F00000009DF8002000F0F000904207D05020FD
:1056000080F31188BFF34F8FBFF36F8FFEE79DF8D4
:1056100000001A4B00F0500018700720986005E059
:105620009DF8002052008DF80020401E9DF80020BB
:105630001206F5D49860032807D0502080F3118813
:10564000BFF34F8FBFF36F8FFEE74FF4407098604A
:10565000019808700A48016841F47001016001680E
:1056600041F070410160FFF761FE00205860FAF7D9
:10567000BFFD00201CBD000000E400E08800002009
:1056800020ED00E038B5049D18B153B1CAB181B125
:1056900020E0502080F31188BFF34F8FBFF36F8F4E
:1056A000FEE7502080F31188BFF34F8FBFF36F8F59
:1056B000FEE7502080F31188BFF34F8FBFF36F8F49
:1056C000FEE739B1502080F31188BFF34F8FBFF34D
:1056D0006F8FFEE750241C46012384F846302B468A
:1056E0000094FFF7C1FA204638BD000070B50D46A2
:1056F000040025D0FFF7B8FDD4E90F20216802FB94
:10570000001161600021A1632168A1600A46D4E90B
:105710000F01401E00FB0121E16021464FF0FF30E8
:1057200001F8440F487004F110008DB1FFF76AFDD5
:1057300004F12400FFF766FDFFF7B6FD012070BD00
:10574000502080F31188BFF34F8FBFF36F8FFEE7B8
:1057500021690029F0D000F001FB0028ECD00449B9
:105760004FF080500860BFF34F8FBFF36F8FE3E7B8
:1057700004ED00E02DE9FF4782B01D468A464FF058
:105780000008040003D0BAF1000F08D011E0502047
:1057900080F31188BFF34F8FBFF36F8FFEE7206C4C
:1057A00038B1502080F31188BFF34F8FBFF36F8F54
:1057B000FEE7022D0AD1E06B012807D0502080F3CC
:1057C0001188BFF34F8FBFF36F8FFEE700F00EFA23
:1057D0003F4F4FF000094FF0805648B9049838B158
:1057E000502080F31188BFF34F8FBFF36F8FFEE718
:1057F000FFF73AFDA06BE16B884207D3022D05D07D
:105800000498D0B1B8F1000F1AD01EE02A465146D4
:105810002046FFF782F9616A19B104F1240000F013
:105820009DFA20B13E60BFF34F8FBFF36F8FFFF73C
:105830003BFD012006B0BDE8F087FFF735FD22E013
:105840006846FFF70BFE4FF00108FFF72DFDFFF74D
:105850008BFEFFF709FD94F94400401C01D184F848
:10586000449094F94500401C01D184F84590FFF71D
:105870001BFD04A9684600F027F930B12046FFF768
:10588000E3FB00F0A3FA0020D4E7FFF7EDFCA06BE8
:10589000E16B884213D1FFF707FD04F11000049972
:1058A000FFF7EAFD2046FFF7CFFB00F08FFA002854
:1058B0009ED13E60BFF34F8FBFF36F8F98E7FFF726
:1058C000F3FC2046FFF7C0FB00F080FA90E70000F1
:1058D00004ED00E02DE9F0471F469046894604009C
:1058E00003D0B9F1000F08D011E0502080F31188E7
:1058F000BFF34F8FBFF36F8FFEE7206C38B150209E
:1059000080F31188BFF34F8FBFF36F8FFEE7022F35
:105910000AD1E06B012807D0502080F31188BFF333
:105920004F8FBFF36F8FFEE7FFF712FD5020EFF3AD
:10593000118680F31188BFF34F8FBFF36F8FA06B79
:10594000E16B884206D3022F04D0002086F3118831
:10595000BDE8F08794F945503A4649462046FFF79E
:10596000DCF8681C04D06D1C84F845500120EDE77C
:10597000606A0028FAD004F1240000F0EFF9002852
:10598000F4D0B8F1000FF1D00121C8F80010EDE714
:105990002DE9F747002683B08A46040003D0BAF108
:1059A000000F08D011E0502080F31188BFF34F8F13
:1059B000BFF36F8FFEE7206C38B1502080F3118861
:1059C000BFF34F8FBFF36F8FFEE700F00FF9DFF8E3
:1059D000F4804FF000094FF0805748B9059838B16E
:1059E000502080F31188BFF34F8FBFF36F8FFEE716
:1059F000FFF73AFCA56BC5B151462046FFF77AF890
:105A00006D1EA563206950B104F1100000F0A6F9E5
:105A100028B1C8F80070BFF34F8FBFF36F8FFFF747
:105A200043FC012006B0BDE8F087059808B11EB11F
:105A300006E0FFF739FC27E06846FFF70FFD012677
:105A4000FFF732FCFFF790FDFFF70EFC94F94400DE
:105A5000401C01D184F8449094F94500401C01D1C8
:105A600084F84590FFF720FC05A9684600F02CF863
:105A7000002820460AD0FFF7E7FA00F0A7F92046F1
:105A8000FFF794F90028B3D00020CBE7FFF78EF999
:105A900090B104F124000599FFF7EEFC2046FFF7D2
:105AA000D3FA00F093F90028A2D1C8F80070BFF330
:105AB0004F8FBFF36F8F9BE72046FFF7C5FA00F0CB
:105AC00085F995E704ED00E02DE9F0410C4605006D
:105AD00011D0C4B1FFF7C8FB174B5A696E68206834
