:020000040800F2
:10000000181F0020E1010008BB4F0008651D000813
:10001000B94F0008D7070008BD54000800000000D1
:10002000000000000000000000000000490100087E
:10003000D9070008000000008D010008C54F000826
:10004000FB010008FB010008FB010008FB010008A0
:10005000FB010008FB010008FB010008FB01000890
:10006000FB010008FB010008FB010008FB01000880
:10007000FB010008FB010008FB010008FB01000870
:10008000FB010008FB010008FB010008FB01000860
:10009000FB010008FB010008FB010008FB01000850
:1000A000FB010008FB010008FB010008FB01000840
:1000B000FB010008FB010008FB010008FB01000830
:1000C000FB010008FB010008FB010008FB01000820
:1000D000FB010008B1540008FB010008FB01000807
:1000E000FB010008FB010008FB010008FB01000800
:1000F000FB010008FB010008FB010008FB010008F0
:10010000FB010008FB01000851500008FB0100083A
:10011000FB010008FB010008FB010008FB010008CF
:10012000FB010008FB010008FB010008FB010008BF
:10013000DFF810D000F01CFB00480047F15D00081C
:10014000AFF30080181F0020224B19680868B0E840
:10015000F00F80F30988BFF36F8F4FF0000080F33A
:1001600011884EF00D0E7047000000000648006830
:10017000006880F3088862B661B6BFF34F8FBFF3A3
:100180006F8F00DF00BF00BF08ED00E0EFF30980D4
:10019000BFF36F8F0F4B1A6820E9F00F106008B59E
:1001A0004FF0500080F31188BFF34F8FBFF36F8F74
:1001B00006F092FD4FF0000080F31188BDE8084082
:1001C00019680868B0E8F00F80F30988BFF36F8FF3
:1001D000704700BF1C000020EFF30580704700004F
:1001E0000648804706480047FEE7FEE7FEE7FEE7D1
:1001F000FEE7FEE7FEE7FEE7FEE7FEE74F500008FA
:1002000031010008202A04DB203A21FA02F0002103
:10021000704721FA02F3D040C2F120029140084316
:100220001946704740EA01039B0703D009E008C95B
:10023000121F08C0042AFAD203E011F8013B00F8AB
:10024000013B521EF9D27047D2B201E000F8012BF7
:10025000491EFBD270470022F6E710B513460A4646
:1002600004461946FFF7F0FF204610BD2DE9FE4F6A
:1002700081EA030404F0004421F0004100944FF0AF
:10028000000B23F0004350EA01045ED052EA03045D
:100290005BD0C3F30A54C1F30A552C44A4F2F334DF
:1002A0000194A0FB0254C1F3130141F48011C3F384
:1002B000130343F4801301FB024400FB034E840A42
:1002C000970A44EA815447EA8357A4FB07680295DA
:1002D0008D0A05FB07854FEA932C04FB0C54270578
:1002E000029D4FEA065847EA1637B5EB08056EEB54
:1002F000070C870E920E47EA811742EA8312A7FB8A
:100300000201B6EB0B0164EB00042B0D43EA0C3346
:100310005E1844EB1C50DA465146E7FB0201C5F378
:1003200013044FEA0B3343EA14534FEA0432019C9F
:1003300043EA0603A4F10C040294009CCDE900B446
:1003400000F082F803B0BDE8F08F00200146F9E725
:100350000EB540F2334102910021CDE900110A4669
:100360000B4600F071F803B000BDC1F30A5210B59E
:10037000C1F3130140F2FF3341F480119A4201DAD4
:10038000002010BD40F233439A42A2F2334203DC14
:100390005242FFF737FF10BD904010BD30B50B46FD
:1003A000014600202022012409E021FA02F59D42A5
:1003B00005D303FA02F5491B04FA02F52844151E79
:1003C000A2F10102F1DC30BD2DE9F05F054600200D
:1003D00092469B4688460646814640241BE02846B6
:1003E000414647462246FFF70DFF53465A46C01A7C
:1003F000914110D311461846224600F0CBF92D1A30
:1004000067EB01084F4622460120002100F0C2F9A7
:1004100017EB00094E41201EA4F10104DFDC484621
:1004200031462A464346BDE8F09F10B5141E73F1CD
:10043000000408DA401C41F1000192185B411A43A4
:1004400001D120F0010010BD2DE9F04D92469B46F0
:1004500011B1B1FA81F202E0B0FA80F22032904696
:1004600000F098F904460F4640EA0A0041EA0B0101
:1004700053465A46084313D0114653EA010019D097
:10048000C8F140025046FFF7BDFE05460E465046F5
:100490005946424600F07EF9084305D0012004E0A9
:1004A00020463946BDE8F08D0020054346EAE07657
:1004B0002C4337430A986305E40AA0EB08000022A6
:1004C000FD0A44EA47540A3002D500200146E9E714
:1004D000010510196941DDE9084500196941BDE8C8
:1004E000F04DA2E72DE9FE4F804681EA0300C00FE0
:1004F0000C46009021F0004123F00045B8EB0200CB
:10050000A94105D24046214690461C460B4602466C
:1005100023F00040104347D0270DC7F30A00C3F370
:100520000A510290401A019040286BDAC3F313007D
:1005300040F4801B0098924620B10023D2EB030ABE
:1005400063EB0B0B01985946C0F14002504600F096
:1005500021F906460D4650465946019A00F029F900
:1005600010EB08006141002487EA115284EAE77326
:100570001A4340D0009A62B3019A012A4FEA075207
:1005800015DC001B61EB02014FF0004202EA07524A
:10059000CDE90042001C41F5801132462B46FFF7A1
:1005A00053FF03B0BDE8F08F40462146F9E7001B3A
:1005B00061EB0201001C41F5801300185B4120181B
:1005C000A2F5001747EB030140EAD570B6196D415B
:1005D00011E06D084FEA360645EAC0754FEA07524A
:1005E000001B61EB0201001C41F5801149084FEA34
:1005F00030000019514132462B4603B0BDE8F04FA0
:10060000FFF713BF0098012240000023D0EB020245
:1006100063EBE073009821464FEAE074B8EB00000A
:1006200061EB0401E9E783F000435BE781F00041FF
:1006300058E72DE9F04D81EA030404F0004B21F066
:10064000004514464FF0000A23F0004150EA05022D
:1006500020D054EA01021DD0C5F30A570246C5F363
:100660001303C1F31300C1F30A5640F4801543F499
:100670008013A7EB0608101BD64608F2FD3873EB73
:10068000050002D308F1010801E092185B41B8F1BE
:10069000000F03DA00200146BDE8F08D00204FF482
:1006A0008011064684460EE0171B73EB050705D341
:1006B000121B63EB050306434CEA010C49084FEAA1
:1006C000300092185B4150EA0107EDD152EA030075
:1006D00012D082EA040083EA0501084305D0101B0A
:1006E000AB4106D20122002306E000224FF0004376
:1006F00002E06FF0010253101AEB06004CEB0851B8
:1007000010EB0A0041EB0B01BDE8F04DFFF78DBE89
:10071000C1F30A52C1F3130140F2FF3341F48011D7
:100720009A4202DA00200146704740F233439A426F
:10073000A2F2334202DC5242FFF764BD00F02AB855
:1007400030B5041E71F1000404DB4FF00044404258
:1007500064EB0101141E73F1000405DB1C464FF02D
:100760000043524263EB0403994208BF904230BDFC
:10077000064C074D06E0E06840F0010394E80700EE
:1007800098471034AC42F6D3FFF7D6FCD48E00085D
:10079000F48E0008202A04DB203A00FA02F100203F
:1007A00070479140C2F1200320FA03F319439040AF
:1007B0007047202A06DBCB17203A41FA02F043EAC1
:1007C000E07306E041FA02F3D040C2F1200291400A
:1007D000084319467047FEE7704772B6FEE700000F
:1007E00030B5B3F5804F05D06FF0704140F822105E
:1007F000002030BD8C690B688D6823434C68898963
:10080000240144EA0524234343EA014150F82230FD
:10081000014C23401943E9E70000F0CF10B50A6806
:1008200050F8223023F0010340F822308C68082C65
:1008300023D000234A682243CC681C430B6922431F
:100840001A434B690E4C1A43CB691A430B6A1A437D
:100850004B6A1A438B6A1A43CB6A1A430B6B1A43CF
:100860008B6913434A6B09681A4350F82130A3433C
:10087000134340F82130002010BD4023DAE7000088
:100880007FFF0F0030B5D1E9003443EA04138C68D0
:100890008D89240244EA054423430C8A094D00EB68
:1008A000820005EB045423430C7D6D0105EB0464C9
:1008B000896923430B43416801F040410B43436086
:1008C000002030BD0000F0FF1CB505F0F1FF1B4912
:1008D0000120CDE900010023102219A11B4806F0D8
:1008E000DDFC164C00230C3C04F11401A060022036
:1008F000CDE90001102216A1184806F0CFFC2061B6
:1009000004F11C010320CDE900010023402214A1C1
:10091000164806F0C3FCA06104F124010420CDE9CF
:1009200000010023802212A1144806F0B7FC2062C7
:10093000BDE81C40002006F08FB80000B000002089
:100940004C45447461736B3100000000DD4C0008BD
:100950004C45447461736B3200000000154D000873
:100960004B45597461736B3300000000691D00082A
:100970004C43447461736B3400000000D14B000899
:1009800010B590F821100022022905D004218163BE
:1009900080F82020012010BD01680B6823F00E03B1
:1009A0000B6001680B6823F001030B6090F8403086
:1009B000C46B012101FA03F3636080F8211080F811
:1009C0002020104610BD00002DE9F05F90F82110A6
:1009D0000024022903D004218163012485E00168F9
:1009E0000A6822F00E020A6001680A6822F0010219
:1009F0000A603F4E3E4FB215DFF8F4C0DFF8F090CA
:100A0000DFF8ECA0DFF8E8B0DFF8E4E00168783F59
:100A100013011502ACF1640CA9F15009AAF13C0ACA
:100A2000ABF1280BAEF1140E4FF48018B14227D968
:100A3000B9420ED0614512D049451DD0514518D05C
:100A4000594518D0714501D1424615E0294EB142B1
:100A500001D1012210E0274E1436B14201D11022FB
:100A60000AE0244E2836B14206D0224A3C32914256
:100A700001D11A4600E02A461E49091F0A602BE0F0
:100A8000B94213D0614517D0494522D051451DD0F8
:100A900059451DD0714501D142461AE0B14202D1FB
:100AA0004FF0807215E0134EB14201D1012210E0E7
:100AB000104E1436B14201D110220AE00D4E2836F4
:100AC000B14206D00B4A3C32914201D11A4600E0B5
:100AD0002A46074980394A60012180F82110002107
:100AE00080F82010416B01B188472046BDE8F09F97
:100AF000800002400804024070B5044600F054F93A
:100B00000546601C02D004480078044400F04CF90B
:100B1000401BA042FAD370BD0C00002030B585B058
:100B2000002000900190029003901748016800296E
:100B300027D1012101601548416941F4807141616B
:100B40004069022400F48070049041F20100CDE974
:100B500000040325694603950D4800F01FF84FF681
:100B60008070CDE90004694603950A4800F016F844
:100B70004CF23370CDE9000469460395064800F055
:100B80000DF805B030BD0000040000200010024048
:100B90000020014000180140001401402DE9F84FE9
:100BA000DFF8C8910024A9F1040B23460F2709F1AF
:100BB000040AABF1040ED1E00125A54006EA0502C6
:100BC000AA4276D1DFF8A8C14E68A6EB0C086645AC
:100BD0002BD00DDC032E34D005DC36B3012E19D01A
:100BE000022E2FD11BE0112E16D0122E2AD119E081
:100BF000B8F5881F19D006DCB8F5803F15D0B8F5D8
:100C0000801F1FD111E0B8F5001F0ED0B8F5041FEA
:100C100018D10AE0CB6815E0CB681B1D12E0CB6849
:100C200008330FE0CB680C330CE08B682BB1012B41
:100C30004FF0080303D0456104E0042302E005619E
:100C400000E00023FF2A01D8064601E000F1040677
:100C50004FEA840501D9A5F12005D6F8008007FAEE
:100C600005FC28EA0C0803FA05F548EA0508C6F869
:100C700000804D68ED0070D53E4DAE6946F001062E
:100C8000AE61AD6924F0030605F0010500953A4D0B
:100C900006EB050CDCF80850A607360F07FA06F835
:100CA00025EA0805DFF8D480404503D14FF000085D
:100CB00025E052E0DFF8C880404502D14FF001083E
:100CC0001DE0DFF8C080404502D14FF0020816E079
:100CD000DFF8B480404502D14FF003080FE0DFF8A1
:100CE000AC80404502D14FF0040808E0DFF8A08056
:100CF000404502D14FF0050801E04FF0060808FA20
:100D000006F848EA0508CCF808804D68D9F8006074
:100D1000ED024D4601D5164300E096432E604D6826
:100D2000DAF80060AD02554601D5164300E096435F
:100D30002E604D68DBF80060AD035D4601D51643BB
:100D400000E096432E604D68DEF80060ED037546C6
:100D500001D5164300E096432E60641C0A681646CF
:100D6000E2407FF429AFBDE8F88F0000080401409D
:100D70000000111000100240000001400008014076
:100D8000000C014000100140001401400018014017
:100D9000001C01408068084000D0012070470AB163
:100DA000016170470904FBE7014880687047000053
:100DB0000C0000200248816802781144816070476D
:100DC0000C000020074810B5016841F010010160D7
:100DD000032000F0A7F80F2000F006F800F050F80C
:100DE000002010BD0020024030B505461F4887B0E6
:100DF000C16941F00801C161C06906A900F008009D
:100E0000009001A800F036F90498B0B100F052F952
:100E100040001749174AB0FBF1F11748491E02601C
:100E2000416040F2E7320021C0E903218160816125
:100E300000F08AFB040003D015E000F03BF9E8E77E
:100E40000D4800F0C3FB04000DD1322000F03CF847
:100E5000102D07D200222946322000F043F807481F
:100E6000056000E0012407B0204630BD00100240BC
:100E700040420F00000C0040A401002010000020A0
:100E80000F4808B5816941F001018161816901F074
:100E900001010091C16941F08051C161C069002226
:100EA00000F0805000900F21901E00F01BF80548C4
:100EB000416821F0E06141F00071416008BD00002F
:100EC0000010024000000140002809DB00F01F0272
:100ED000012191404009800000F1E020C0F800119C
:100EE00070470000F0B40E4B1B680C46C3F302239E
:100EF000C3F10705042D00D90425191D072901D2C6
:100F0000002300E0DB1E012606FA05F1491E214000
:100F100099409E40761E16403143F0BC04F0F2BA70
:100F20000CED00E0064900F0070208684FF6FF03E9
:100F3000184040EA0220034A10430860704700004E
:100F40000CED00E00000FA052DE9F0470F46050022
:100F500061D0434E306800F00700B84209D23068D3
:100F600020F0070038433060306800F00700B842D6
:100F700051D128683B4C810712D5400703D56068E2
:100F800040F4E06060602878000703D5606840F4B2
:100F9000605060606068A96820F0F00008436060FD
:100FA0002878C00728D06868012810D02168022856
:100FB00010D0890700292EDA616821F0030101436E
:100FC0006160FFF7F1FE804641F288390DE021684B
:100FD0008903EFE78901EDE7FFF7E6FEA0EB0801E3
:100FE000494502D90320BDE8F0876068696800F0D0
:100FF0000C00B0EB810FEFD1306800F00700B84271
:101000000BD9306820F0070038433060306800F0BA
:101010000700B84201D00120E5E72878400705D550
:101020006068E96820F4E0600843606028780007A1
:1010300006D56068296920F4605040EAC10060600C
:1010400000F058F86168084AC1F30311515CC840C8
:101050000649086006480068FFF7C6FE0020C2E7A0
:101060000020024000100240EE7600081800002028
:10107000100000200F2202600C4A536803F00303A3
:101080004360536803F0F0038360536803F4E06344
:10109000C36052684FF4E06303EAD202026104487D
:1010A000006800F007000860704700000010024070
:1010B000002002400448054900684968044AC1F319
:1010C0000221515CC8407047180000200010024007
:1010D000FE7600080448054900684968044AC1F3DF
:1010E000C221515CC8407047180000200010024027
:1010F000FE7600080E4A51680E4801F00C03042BDE
:1011000011D0082B0FD10C48C1F38343C903C05C35
:101110000AD55168084AC1F34041921E515C054A04
:101120005043B0FBF1F0704704494843704700005A
:101130000010024000127A00DE76000800093D002F
:101140002DE9F84F040070D02078C04DC00749D079
:101150006868C0F38100012807D06868C0F3810087
:10116000022809D16868C00306D52868800339D5EC
:1011700060680028E7D035E06068B0F5803F0BD0AC
:1011800010B1B0F5A02F11D0286820F4803028606D
:10119000286820F4802002E0286840F4803028602D
:1011A000606890B1FFF700FE06460AE0286840F448
:1011B00080202860F0E700BFFFF7F6FD801B642861
:1011C00073D828688003F7D50CE0FFF7EDFD0646DD
:1011D00005E000BFFFF7E8FD801B6428F0D8286811
:1011E0008003F7D420789A4E80074FF001094FF022
:1011F000000839D5686810F00C0F07D06868C0F394
:101200008100022809D16868C00306D428688007D5
:1012100014D52069012808D110E02069B0B1C6F8C2
:101220000090FFF7C1FD074605E00AE1FFF7BCFDAE
:10123000C01B0228C4D828688007F7D528686169D0
:1012400020F0F80040EAC10028600DE0C6F80080F8
:10125000FFF7AAFD074604E0FFF7A6FDC01B022822
:1012600023D828688007F7D4207800072CD5794840
:10127000A169D9B1C0F80090FFF796FD074604E0D8
:10128000FFF792FDC01B02280FD8686A8007F7D5C8
:1012900071484FF4FA510068B0FBF1F0009000BFC4
:1012A0000098411E0091FAD20EE080E0C0F8008064
:1012B000FFF77AFD074604E0FFF776FDC01B022822
:1012C00075D8686A8007F7D42078400760D5E86948
:1012D0000027C00008D4E86940F08050E861E86960
:1012E000012700F0805000905C480168C90513D4C4
:1012F0000168834641F480710160FFF755FD824625
:1013000006E000BFFFF750FDA0EB0A0064284ED8AE
:10131000DBF80000C005F5D5E06801280AD008B167
:10132000052813D0286A20F001002862286A20F0DE
:10133000040002E0286A40F001002862E06841F2FF
:10134000883B98B1FFF730FD82460BE0286A40F0F9
:1013500004002862EEE700BFFFF726FDA0EB0A01BC
:1013600059455AD8286A8007F6D50CE0FFF71CFDCE
:10137000824605E0FFF718FDA0EB0A0159454CD85D
:10138000286A8007F6D41FB1E86920F08050E86130
:10139000E06988B36968C1F38101022944D0022859
:1013A000C6F8608004D0FFF7FFFC044638E034E064
:1013B000FFF7FAFC074604E0FFF7F6FCC01B022823
:1013C0002BD828688001F7D4206AB0F5803F05D17A
:1013D0006868A16820F4003008436860D4E9080117
:1013E0000843696821F4741108436860C6F8609086
:1013F000FFF7DAFC044606E025E000BFFFF7D4FC67
:10140000001B022809D828688001F7D51BE000BF1F
:10141000FFF7CAFC001B022802D90320BDE8F88FA1
:1014200028688001F4D40EE00128F7D06868226AA9
:1014300000F48031914204D1616A00F47010884256
:1014400001D00120EAE70020E8E700000010024098
:101450000000424280044242180000200070004018
:1014600070B515460E46040007D0A069B0F5807F20
:1014700003D094F8410010B107E0012070BD0020B6
:1014800084F84000204600F01DF804F108012068AF
:10149000FFF7C4F93146A2682068FFF7F3F9D4E9F1
:1014A00001022946236BFFF79BF9A168206850F8D9
:1014B000212042F0010240F82120012084F841005F
:1014C000002070BDFFF72ABB7047704770B590F8D9
:1014D0003C20012A2CD0012480F83C40022280F8D4
:1014E0003D2003685A689D6822F070060A683243FE
:1014F0005A60104B02689A420ED00F4B9A420BD0A2
:10150000B2F1804F08D00D4B9A4205D00C4B9A4255
:1015100002D00C4B9A4204D1496825F0800319434C
:10152000916080F83D40002180F83C10084670BD75
:10153000022070BD002C0140003401400004004036
:1015400000080040000C004010B5040003D094F8DF
:101550003D0010B107E0012010BD002084F83C00E0
:10156000204600F01FF8022084F83D00211D20686D
:1015700003F074FD012084F8460084F83E0084F8EE
:101580003F0084F8400084F8410084F8420084F869
:10159000430084F8440084F8450084F83D000020AE
:1015A00010BD000008B500680649884208D1064809
:1015B000C16941F00401C161C06900F004000090FC
:1015C00008BD0000000800400010024090F83D10E7
:1015D000012901D001207047022180F83D100168E7
:1015E000CA6842F00102CA6000680E4988420ED003
:1015F0000D4988420BD0B0F1804F08D00B4988428A
:1016000005D00B49884202D00A49884204D181683A
:1016100001F00701062903D0016841F001010160D2
:1016200000207047002C01400034014000040040BD
:1016300000080040000C004070B5044690F83C00E3
:101640000025012817D0012684F83C60022084F888
:101650003D002068826822F0770222F47F42826097
:101660000868502838D00DDC20284FD005DC90B316
:10167000102811D14AE0022070BD302846D0402801
:101680000AD13BE060282FD070280DD0B0F5805FE4
:1016900003D0B0F5005F12D0012584F83D60002032
:1016A00084F83C00284670BDCB68D1E90121206850
:1016B00003F01AFD2068816841F0770109E0CB68EA
:1016C000D1E90121206803F00FFD2068816841F411
:1016D00080418160E1E719E0CA684968206803F049
:1016E000D7FD5021206806E0CA684968206803F0E9
:1016F000E0FD6021206803F001FDCEE7CA6849687B
:10170000206803F0C5FD40212068F4E72268014607
:101710001046F0E7704770B50446006801694FF065
:101720000005C943890715D4C168C943890711D485
:10173000E91E01610120207720688069800720462A
:1017400002D0FFF7E7FF04E000F0BEF8204600F00B
:1017500050F9257720680169C943490717D4C16842
:10176000C943490713D46FF00401016102202077B7
:101770002068806910F4407F204602D0FFF7CAFF3E
:1017800004E000F0A1F8204600F033F92577206846
:101790000169C943090716D4C168C943090712D4AE
:1017A0006FF008010161042020772068C06980077C
:1017B000204602D0FFF7AEFF04E000F085F8204697
:1017C00000F017F9257720680169C943C90617D4C5
:1017D000C168C943C90613D46FF010010161082024
:1017E00020772068C06910F4407F204602D0FFF7C0
:1017F00091FF04E000F068F8204600F0FAF8257741
:1018000020680169C943C90708D1C168C943C9072C
:1018100004D1891E0161204600F0ECF820680169BE
:10182000C943090609D4C168C943090605D46FF044
:10183000800101612046FFF747FE20680169C94326
:10184000490609D4C168C943490605D46FF040016F
:101850000161204600F0D8F820680169C943890673
:101860000BD4C168C943890607D46FF02001016118
:101870002046BDE87040FFF728BE70BD00B585B0BA
:101880000021009101910291039100680B49884267
:1018900012D10B48816941F0080181618069694674
:1018A00000F0080004904FF4807000900220019036
:1018B00003900448FFF772F905B000BD000800402E
:1018C00000100240000C0140704770B5044690F8CB
:1018D0003C0000260D4601280FD0012084F83C0072
:1018E0006AB1042A1DD0082A2FD00C2A3FD0012625
:1018F000002084F83C00304670BD022070BD206896
:1019000003F004FC2068816941F0080181612068CE
:10191000816921F004018161206881692A6911438C
:1019200011E0206803F022FC2068816941F4006125
:1019300081612068816921F4806181612068816909
:101940002A6941EA02218161D2E7206803F044FC60
:101950002068C16941F00801C1612068C16921F0B6
:101960000401C1612068C1692A69114311E020683E
:1019700003F066FC2068C16941F40061C161206820
:10198000C16921F48061C1612068C1692A6941EAA5
:101990000221C161ACE710B5040003D094F83D000A
:1019A00010B107E0012010BD002084F83C00204663
:1019B00000F01EF8022084F83D00211D206803F08D
:1019C0004DFB012084F8460084F83E0084F83F0077
:1019D00084F8400084F8410084F8420084F8430011
:1019E00084F8440084F8450084F83D00002010BDD0
:1019F0007047704700680349884201D1FFF7DAB9A0
:101A000070470000000C00407047704770470000AE
:101A1000F8B5016804460868CA684B6910F00F0FF2
:101A20004FF0000559D003F0010602F490773743D8
:101A300065D0C10705D0D10503D5616C41F0010126
:101A40006164410705D5D90703D0616C41F00201FB
:101A50006164810705D5D90703D0616C41F00401A9
:101A60006164010707D502F02001314303D0616CA6
:101A700041F008016164616C00293AD0800604D508
:101A8000900602D5204603F055FC20684069616C41
:101A9000C0F38010090700D460B3204603F023FC94
:101AA00020684069400621D52068143050E8001FA6
:101AB00021F0400140E80012002AF5D1E06BA8B106
:101AC0006D494163E06BFEF77FFF002811D0E06BAA
:101AD000416B01B0BDE8F040084783060FD593067F
:101AE0000DD52046BDE8F84003F024BC2046FFF7A2
:101AF0008DFFF8BD2046FFF789FF6564F8BD266BB2
:101B00002023012E7CD1C6067AD5D60678D5086862
:101B10004868009048694FF00206400640D5E16BE6
:101B2000086840680004000CE8D0A28D8242E5D924
:101B3000E085886920282DD020680C3050E8001FEF
:101B400021F4807140E80012002AF5D12068143099
:101B500050E8001F21F0010140E80012002AF5D1F1
:101B60002068143050E8001F21F0400140E80012C6
:101B7000002AF5D184F84230256320680C3050E803
:101B8000001F21F0100140E80012002AF5D1E06B9F
:101B9000FEF7F6FE6663A08DE18D401A81B22AE061
:101BA000A08DE18D401A81B2E08D0028A6D00029D9
:101BB000A4D022680C3252E8000F20F4907042E862
:101BC0000007002FF5D12068143050E8002F22F0D4
:101BD000010240E80027002FF5D184F84230256348
:101BE00020680C3050E8002F22F0100240E800235B
:101BF000002BF5D166632046FFF707FFF8BDFFE72E
:101C000005062BD5150629D594F841002128F5D1D4
:101C1000A068B0F5805F01D12069B0B1206A411C95
:101C20002162216800784860E08C401E0004000CAE
:101C3000E084E3D12068C16821F08001C1602068A0
:101C4000C16841F04001C160D8E7206A0088C0F354
:101C500008004860206A801C2062E5E74006CDD578
:101C60005006CBD5CA68204622F04002CA6084F8EC
:101C7000413000F076F8C1E7D752000870B5040093
:101C800004D094F84100002510B106E0012070BD99
:101C900084F84050204600F023F8242084F84100C6
:101CA0002068C16821F40051C160204603F0A4FB04
:101CB0002068016921F4904101612068416921F0A7
:101CC0002A0141612068C16841F40051C160656426
:101CD000202084F8410084F842006563002070BD34
:101CE00030B585B0002400940194029403940068F8
:101CF000184988422CD11848816941F4804181619A
:101D0000816901F480410491816941F0040181619C
:101D10008069124D00F0040004904FF400700090B0
:101D2000022001900320039069462846FEF736FF03
:101D30002815CDE90004694628460294FEF72EFFD7
:101D4000002206212520FFF7CDF82520FFF7BCF85B
:101D500005B030BD003801400010024000080140CD
:101D600070477047FEE700000F4C012000F032F88A
:101D7000012802D002280AD012E00CA310229621DA
:101D80001E2002F007FF606904F050FF08E00CA37A
:101D9000102296211E2002F0FDFE606904F0C4FEB0
:101DA0000A2004F047F8E0E7A40000204C45443244
:101DB000205461736B2053757370656E642100004D
:101DC0004C454432205461736B20526573756D65C8
:101DD0002100000070B501261B4C1C4D012803D0CA
:101DE0002078012801D00AE0267008212846FEF755
:101DF000D1FF58B110212846FEF7CCFF30B10821A1
:101E00002846FEF7C7FF012814D01AE0052004F089
:101E100011F80020207008212846FEF7BBFF28B1EA
:101E200010212846FEF7B6FF10B10AE0012070BD70
:101E3000022070BD10212846FEF7ACFF012800D11A
:101E40002670002070BD00009C000020001801409A
:101E500070B504460026094805884088454300219E
:101E6000084602F01FFD02F083FE00BF02E00448B6
:101E70000480761CAE42FAD370BD0000081B00201F
:101E80000008006C10B5044649488471002C45D107
:101E9000F020474908804FF4A070488008468088A9
:101EA00045F21051884210D14FF43050404908811A
:101EB0004FF4285048814FF42C5088814FF4F07033
:101EC00008804FF4487048801AE03948808841F60D
:101ED000631188420DD12C20354908812B2048817F
:101EE0002A2088814FF4F07008804FF448704880B1
:101EF00006E02C202E4908812A2048812B20888149
:101F00002B48808845F2103188424CD14FF4A070A4
:101F1000274908804FF4F070488044E04FF4A070E7
:101F200023490880F02048800846808845F21051F7
:101F3000884210D14FF430501D4908814FF4285089
:101F400048814FF42C5088814FF4487008804FF43A
:101F5000F07048801AE01648808841F66311884284
:101F60000DD12C20124908812A2048812B208881FC
:101F70004FF4487008804FF4F070488006E02C2041
:101F80000B4908812A2048812B20888108488088B5
:101F900045F21031884206D14FF4F07004490880B0
:101FA0004FF4A0704880002002F062FB10BD0000DA
:101FB000081B002010B503460C463848808845F2BF
:101FC0001051884220D13549488902F0CBFD1812C2
:101FD00002F0C2FD31494989491C88B202F0C2FDB4
:101FE000D8B202F0B9FD2D49888902F0BBFD20125C
:101FF00002F0B2FD29498989491C88B202F0B2FD7C
:10200000E0B202F0A9FD42E02448808841F6631165
:10201000884228D12148807920B920480088401E74
:10202000C01A83B21D49488902F09CFD181202F0C3
:1020300093FDD8B202F090FD181202F08DFDD8B2D7
:1020400002F08AFD1549888902F08CFD201202F009
:1020500083FDE0B202F080FD201202F07DFDE0B2CF
:1020600002F07AFD13E00D49488902F07BFD181259
:1020700002F072FDD8B202F06FFD0849888902F0C3
:1020800071FD201202F068FDE0B202F065FD034828
:10209000008903490880881C028010BD081B0020AD
:1020A000FE07006C10B53220FEF726FDD32002F0AB
:1020B00059FD02F0ADFAF949888002F0A9FAF74912
:1020C000888002F0A5FAF5498880084680884FF696
:1020D000FF7101EA0020F149888002F099FAEF4986
:1020E00089880843ED4988800846808849F2413153
:1020F00088427DD0042002F035FD02F089FAE749DC
:10210000888002F085FAE549888002F081FAE34987
:102110008880084680884FF6FF7101EA0020DF4979
:10212000888002F075FADD4989880843DB49888098
:102130000846808848F25251884203D147F289709C
:10214000D6498880D548808847F289718842D0D0A6
:10215000D42002F007FD02F05BFAD049888002F03B
:1021600057FACE49888002F053FACC498880084655
:1021700080884FF6FF7101EA0020C849888002F08C
:1021800047FAC64989880843C44988800846808838
:1021900045F21031884262D055214FF4704002F070
:1021A000F1FCAA214FF2010002F0ECFC52214FF2A7
:1021B000020002F0E7FC08214FF2030002F0E2FC0B
:1021C00001214FF2040002F0DDFC4FF4454002F023
:1021D000C9FC02F01DFAB1498880084680884FF694
:1021E000FF7101EA0020AD4988804CF2015000E007
:1021F00035E002F0B7FC02F00BFAA84989880843E1
:10220000A64988803220FEF777FCA448808845F2F2
:102210001051884223D0A12002F0A4FC02F0F8F96A
:102220009E49888002F0F4F99C498880084680889D
:102230004FF6FF7101EA00209849888002F0E8F922
:10224000964989880843954988800846808845F2E0
:102250006171884203D141F66310904988808F48AC
:10226000808849F2413188427ED1CF2002F07AFC49
:10227000002002F071FCC12002F06EFC302002F060
:102280006BFCED2002F06EFC642002F065FC032084
:1022900002F062FC122002F05FFC812002F05CFC84
:1022A000E82002F05FFC852002F056FC102002F0CE
:1022B00053FC7A2002F050FCCB2002F053FC392072
:1022C00002F04AFC2C2002F047FC002002F044FC03
:1022D000342002F041FC022002F03EFCF72002F024
:1022E00041FC202002F038FCEA2002F03BFC0020F8
:1022F00002F032FC002002F02FFCC02002F032FC81
:102300001B2002F029FCC12002F02CFC012002F06D
:1023100023FCC52002F026FC302002F01DFC3020FA
:1023200002F01AFCC72002F01DFCB72002F014FCDA
:10233000362002F017FC482002F00EFC3A2002F092
:1023400011FC552002F008FCB12002F00BFC00202B
:1023500002F002FC1A2002F0FFFBB62002F002FCA1
:102360000A2002F0F9FB00E09AE0A22002F0F4FB60
:10237000F22002F0F7FB002002F0EEFB262002F034
:10238000F1FB012002F0E8FBE02002F0EBFB0F2064
:1023900002F0E2FB2A2002F0DFFB282002F0DCFB47
:1023A000082002F0D9FB0E2002F0D6FB082002F034
:1023B000D3FB542002F0D0FBA92002F0CDFB432038
:1023C00002F0CAFB0A2002F0C7FB0F2002F0C4FB98
:1023D000002002F0C1FB002002F0BEFB002002F052
:1023E000BBFB002002F0B8FBE12002F0BBFB0020A9
:1023F00002F0B2FB152002F0AFFB172002F0ACFB9D
:10240000072002F0A9FB112002F0A6FB062002F033
:10241000A3FB2B2002F0A0FB562002F09DFB3C20EA
:1024200002F09AFB052002F097FB102002F094FBCB
:102430000F2002F091FB3F2002F08EFB3F2002F0C4
:102440008BFB0F2002F088FB2B2002F08BFB00207F
:1024500002F082FB002002F07FFB012002F07CFBF7
:102460003F2002F079FB2A2002F07CFB002002F0E2
:1024700073FB002002F070FB002002F06DFBEF20E8
:1024800002F06AFB112002F06DFB7820FEF734FBAE
:10249000292002F067FB02F0A9B80000081B002009
:1024A000FE48808847F2897188427CD1112002F071
:1024B00059FB7820FEF720FB362002F053FB00206A
:1024C00002F04AFB3A2002F04DFB052002F044FBEB
:1024D000B22002F047FB0C2002F03EFB0C2002F081
:1024E0003BFB002002F038FB332002F035FB3320A9
:1024F00002F032FBB72002F035FB352002F02CFB56
:10250000BB2002F02FFB322002F026FBC02002F09D
:1025100029FB0C2002F020FBC22002F023FB01204B
:1025200002F01AFBC32002F01DFB102002F014FB86
:10253000C42002F017FB202002F00EFBC62002F0A0
:1025400011FB0F2002F008FBD02002F00BFBA420AF
:1025500002F002FBA12002F0FFFAE02002F002FBF1
:10256000D02002F0F9FA002002F0F6FA022002F080
:10257000F3FA072002F0F0FA0A2002F0EDFA282020
:1025800002F0EAFA322002F0E7FA442002F0E4FA1C
:10259000422002F0E1FA062002F0DEFA0E2002F0FC
:1025A000DBFA122000E056E002F0D6FA142002F026
:1025B000D3FA172002F0D0FAE12002F0D3FAD020AB
:1025C00002F0CAFA002002F0C7FA022002F0C4FAB0
:1025D000072002F0C1FA0A2002F0BEFA282002F019
:1025E000BBFA312002F0B8FA542002F0B5FA4720C5
:1025F00002F0B2FA0E2002F0AFFA1C2002F0ACFAA0
:10260000172002F0A9FA1B2002F0A6FA1E2002F001
:10261000A3FA2A2002F0A6FA002002F09DFA002078
:1026200002F09AFA002002F097FAEF2002F094FAF2
:102630002B2002F097FA002002F08EFA002002F020
:102640008BFA012002F088FA3F2002F085FA292057
:1026500002F088FA1FE79148808845F210318842DD
:1026600040F07C87ED2002F07DFA012002F074FA40
:10267000FE2002F071FAEE2002F074FADE2002F081
:102680006BFA212002F068FAF12002F06BFA0120C7
:1026900002F062FADF2002F065FA102002F05CFA24
:1026A000C42002F05FFA8F2002F056FAC62002F032
:1026B00059FA002002F050FAE22002F04DFAE2202E
:1026C00002F04AFAE22002F047FABF2002F04AFA8A
:1026D000AA2002F041FAB02002F044FA0D2002F0E4
:1026E0003BFA002002F038FA0D2002F035FA002003
:1026F00002F032FA112002F02FFA002002F02CFA38
:10270000192002F029FA002002F026FA212002F016
:1027100023FA002002F020FA2D2002F01DFA0020FA
:1027200002F01AFA3D2002F017FA002002F014FA23
:102730005D2002F011FA002002F00EFA5D2002F096
:102740000BFA002002F008FAB12002F00BFA802008
:1027500002F002FA002002F0FFF98B2002F0FCF9EF
:10276000002002F0F9F9962002F0F6F9002002F0BC
:10277000F3F9B22002F0F6F9002002F0EDF90020A2
:1027800002F0EAF9022002F0E7F9002002F0E4F991
:10279000032002F0E1F9002002F0DEF9B32002F09C
:1027A000E1F9002002F0D8F9002002F0D5F900206C
:1027B00002F0D2F9002002F0CFF9002002F0CCF9AB
:1027C000002002F0C9F9002002F0C6F9002002F052
:1027D000C3F9002002F0C0F9002002F0BDF900208A
:1027E00002F0BAF9002002F0B7F9002002F0B4F9C3
:1027F000002002F0B1F9002002F0AEF9002002F052
:10280000ABF9002002F0A8F9002002F0A5F90020A1
:1028100002F0A2F9002002F09FF9002002F09CF9DA
:10282000002002F099F9002002F096F9002002F051
:1028300093F9B42002F096F98B2002F08DF9002074
:1028400002F08AF9962002F087F9002002F084F95C
:10285000A12002F081F9002002F07EF9B52002F0FB
:1028600081F9022002F078F9002002F075F90320C6
:1028700002F072F9002002F06FF9042002F06CF906
:10288000002002F069F9B62002F06CF9002002F095
:1028900063F9002002F060F9B72001E0081B002076
:1028A00002F060F9002002F057F9002002F054F91C
:1028B0003F2002F051F9002002F04EF95E2002F0B4
:1028C0004BF9002002F048F9642002F045F900209D
:1028D00002F042F98C2002F03FF9002002F03CF9AE
:1028E000AC2002F039F9002002F036F9DC2002F0C9
:1028F00033F9002002F030F9702002F02DF90020A9
:1029000002F02AF9902002F027F9002002F024F9C1
:10291000EB2002F021F9002002F01EF9DC2002F089
:102920001BF9002002F018F9B82002F01BF9002072
:1029300002F012F9002002F00FF9002002F00CF969
:10294000002002F009F9002002F006F9002002F050
:1029500003F9002002F000F9002002F0FDF8BA208F
:1029600002F000F9242002F0F7F8002002F0F4F859
:10297000002002F0F1F8002002F0EEF8C12002F091
:10298000F1F8202002F0E8F8002002F0E5F85420E9
:1029900002F0E2F8002002F0DFF8FF2002F0DCF89D
:1029A000002002F0D9F8C22002F0DCF80A2002F080
:1029B000D3F8002002F0D0F8042002F0CDF8002077
:1029C00002F0CAF8C32002F0CDF83C2002F0C4F8AF
:1029D000002002F0C1F83A2002F0BEF8002002F018
:1029E000BBF8392002F0B8F8002002F0B5F8372023
:1029F00002F0B2F8002002F0AFF83C2002F0ACF890
:102A0000002002F0A9F8362002F0A6F8002002F01B
:102A1000A3F8322002F0A0F8002002F09DF82F2049
:102A200002F09AF8002002F097F82C2002F094F8B7
:102A3000002002F091F8292002F08EF8002002F028
:102A40008BF8262002F088F8002002F085F8242078
:102A500002F082F8002002F07FF8242002F07CF8D7
:102A6000002002F079F8232002F076F8002002F02E
:102A700073F83C2002F070F8002002F06DF8362068
:102A800002F06AF8002002F067F8322002F064F8E1
:102A9000002002F061F82F2002F05EF8002002F022
:102AA0005BF82C2002F058F8002002F055F829209D
:102AB00002F052F8002002F04FF8262002F04CF805
:102AC000002002F049F8242002F046F8002002F02D
:102AD00043F8242002F040F8002002F03DF82320C3
:102AE00002F03AF8002002F037F8C42002F03AF879
:102AF000622002F031F8002002F02EF8052002F0EA
:102B00002BF8002002F028F8842002F025F800209D
:102B100002F022F8F02002F01FF8002002F01CF86A
:102B2000182002F019F8002002F016F8A42002F094
:102B300013F8002002F010F8182002F00DF8002021
:102B400002F00AF8502002F007F8002002F004F822
:102B50000C2002F001F8002001F0FEFF172001F028
:102B6000FBFF002001F0F8FF952001F0F5FF0020A9
:102B700001F0F2FFF32001F0EFFF002001F0ECFF85
:102B8000E62001F0E9FF002001F0E6FFC52001F09A
:102B9000E9FF322001F0E0FF002001F0DDFF4420DA
:102BA00001F0DAFF002001F0D7FF652001F0D4FF2B
:102BB000002001F0D1FF762001F0CEFF002001F0CF
:102BC000CBFF882001F0C8FF002001F0C5FFC62020
:102BD00001F0C8FF202001F0BFFF002001F0BCFF82
:102BE000172001F0B9FF002001F0B6FF012001F02D
:102BF000B3FF002001F0B0FFC72001F0B3FF0020B9
:102C000001F0AAFF002001F0A7FF002001F0A4FFBF
:102C1000002001F0A1FFC82001F0A4FF002001F076
:102C20009BFF002001F098FF002001F095FF00209D
:102C300001F092FFC92001F095FF002001F08CFF08
:102C4000002001F089FF002001F086FF002001F044
:102C500083FF002001F080FF002001F07DFF0020B5
:102C600001F07AFF002001F077FF002001F074FFEF
:102C7000002001F071FF002001F06EFF002001F044
:102C80006BFF002001F068FF002001F065FF0020CD
:102C900001F062FF002001F05FFFE02001F062FF21
:102CA000162001F059FF002001F056FF1C2001F012
:102CB00053FF002001F050FF212001F04DFF0020C4
:102CC00001F04AFF362001F047FF002001F044FFE9
:102CD000462001F041FF002001F03EFF522001F0AC
:102CE0003BFF002001F038FF642001F035FF002099
:102CF00001F032FF7A2001F02FFF002001F02CFFBD
:102D00008B2001F029FF002001F026FF992001F01F
:102D100023FF002001F020FFA82001F01DFF00206C
:102D200001F01AFFB92001F017FF002001F014FF95
:102D3000C42001F011FF002001F00EFFCA2001F0B5
:102D40000BFF002001F008FFD22001F005FF00205A
:102D500001F002FFD92001F0FFFE002001F0FCFE8F
:102D6000E02001F0F9FE002001F0F6FEF32001F072
:102D7000F3FE002001F0F0FEE12001F0F3FE16204A
:102D800001F0EAFE002001F0E7FE1C2001F0E4FE65
:102D9000002001F0E1FE222001F0DEFE002001F023
:102DA000DBFE362001F0D8FE002001F0D5FE4520E4
:102DB00001F0D2FE002001F0CFFE522001F0CCFE47
:102DC000002001F0C9FE642001F0C6FE002001F0E1
:102DD000C3FE7A2001F0C0FE002001F0BDFE8B2072
:102DE00001F0BAFE002001F0B7FE992001F0B4FE18
:102DF000002001F0B1FEA82001F0AEFE002001F09D
:102E0000ABFEB92001F0A8FE002001F0A5FEC42011
:102E100001F0A2FE002001F09FFECA2001F09CFEFE
:102E2000002001F099FED22001F096FE002001F072
:102E300093FED82001F090FE002001F08DFEE020EE
:102E400001F08AFE002001F087FEF32001F084FEED
:102E5000002001F081FEE22001F084FE052001F057
:102E60007BFE002001F078FE0B2001F075FE0020B3
:102E700001F072FE1B2001F06FFE002001F06CFEDD
:102E8000342001F069FE002001F066FE442001F0CC
:102E900063FE002001F060FE4F2001F05DFE002087
:102EA00001F05AFE612001F057FE002001F054FEAF
:102EB000792001F051FE002001F04EFE882001F043
:102EC0004BFE002001F048FE972001F045FE002057
:102ED00001F042FEA62001F03FFE002001F03CFE82
:102EE000B72001F039FE002001F036FEC22001F0CB
:102EF00033FE002001F030FEC72001F02DFE00203F
:102F000001F02AFED12001F027FE002001F024FE6E
:102F1000D62001F021FE002001F01EFEDD2001F090
:102F20001BFE002001F018FEF32001F015FE00202A
:102F300001F012FEE32001F015FE052001F00CFE69
:102F4000002001F009FE0A2001F006FE002001F039
:102F500003FE1C2001F000FE002001F0FDFD3320E7
:102F600001F0FAFD002001F0F7FD442001F0F4FD2E
:102F7000002001F0F1FD502001F0EEFD002001F0F5
:102F8000EBFD622001F0E8FD002001F0E5FD782076
:102F900001F0E2FD002001F0DFFD882001F0DCFD02
:102FA000002001F0D9FD972001F0D6FD002001F0AE
:102FB000D3FDA62001F0D0FD002001F0CDFDB7200B
:102FC00001F0CAFD002001F0C7FDC22001F0C4FDE0
:102FD000002001F0C1FDC72001F0BEFD002001F07E
:102FE000BBFDD12001F0B8FD002001F0B5FDD520DA
:102FF00001F0B2FD002001F0AFFDDD2001F0ACFDDD
:10300000002001F0A9FDF32001F0A6FD002001F051
:10301000A3FDE42001F0A6FD012001F09DFD0020AC
:1030200001F09AFD012001F097FD002001F094FDD0
:10303000022001F091FD002001F08EFD2A2001F018
:103040008BFD002001F088FD3C2001F085FD002073
:1030500001F082FD4B2001F07FFD002001F07CFD9E
:103060005D2001F079FD002001F076FD742001F073
:1030700073FD002001F070FD842001F06DFD002043
:1030800001F06AFD932001F067FD002001F064FD6E
:10309000A22001F061FD002001F05EFDB32001F0EF
:1030A0005BFD002001F058FDBE2001F055FD002021
:1030B00001F052FDC42001F04FFD002001F04CFD55
:1030C000CD2001F049FD002001F046FDD32001F0A4
:1030D00043FD002001F040FDDD2001F03DFD00201A
:1030E00001F03AFDF32001F037FD002001F034FD3E
:1030F000E52001F037FD002001F02EFD002001F059
:103100002BFD002001F028FD002001F025FD02200C
:1031100001F022FD002001F01FFD292001F01CFD1F
:10312000002001F019FD3C2001F016FD002001F007
:1031300013FD4B2001F010FD002001F00DFD5D207E
:1031400001F00AFD002001F007FD742001F004FDEC
:10315000002001F001FD842001F0FEFC002001F0C0
:10316000FBFC932001F0F8FC002001F0F5FCA2200C
:1031700001F0F2FC002001F0EFFCB32001F0ECFCC8
:10318000002001F0E9FCBE2001F0E6FC002001F087
:10319000E3FCC42001F0E0FC002001F0DDFCCD20C8
:1031A00001F0DAFC002001F0D7FCD32001F0D4FCC0
:1031B000002001F0D1FCDC2001F0CEFC002001F069
:1031C000CBFCF32001F0C8FC002001F0C5FCE62098
:1031D00001F0C8FC112001F0BFFC002001F0BCFC94
:1031E000342001F0B9FC002001F0B6FC562001F0BB
:1031F000B3FC002001F0B0FC762001F0ADFC002013
:1032000001F0AAFC772001F0A7FC002001F0A4FC4B
:10321000662001F0A1FC002001F09EFC882001F056
:103220009BFC002001F098FC992001F095FC002007
:1032300001F092FCBB2001F08FFC002001F08CFC1F
:10324000992001F089FC002001F086FC662001F045
:1032500083FC002001F080FC552001F07DFC002063
:1032600001F07AFC552001F077FC002001F074FC9D
:10327000452001F071FC002001F06EFC432001F0BC
:103280006BFC002001F068FC442001F065FC00208C
:1032900001F062FCE72001F065FC322001F05CFCEB
:1032A000002001F059FC552001F056FC002001F0EF
:1032B00053FC762001F050FC002001F04DFC66200C
:1032C00001F04AFC002001F047FC672001F044FCBB
:1032D000002001F041FC672001F03EFC002001F0DD
:1032E0003BFC872001F038FC002001F035FC9920E0
:1032F00001F032FC002001F02FFCBB2001F02CFC7F
:10330000002001F029FC992001F026FC002001F0AA
:1033100023FC772001F020FC002001F01DFC44205C
:1033200001F01AFC002001F017FC562001F014FCFB
:10333000002001F011FC232001F00EFC002001F020
:103340000BFC332001F008FC002001F005FC4520B7
:1033500001F002FC002001F0FFFBE82001F002FC7C
:10336000002001F0F9FB002001F0F6FB992001F0AC
:10337000F3FB002001F0F0FB872001F0EDFB0020C3
:1033800001F0EAFB882001F0E7FB002001F0E4FBFC
:10339000772001F0E1FB002001F0DEFB662001F068
:1033A000DBFB002001F0D8FB882001F0D5FB0020DA
:1033B00001F0D2FBAA2001F0CFFB002001F0CCFBF2
:1033C000BB2001F0C9FB002001F0C6FB992001F0F1
:1033D000C3FB002001F0C0FB662001F0BDFB002014
:1033E00001F0BAFB552001F0B7FB002001F0B4FB5F
:1033F000552001F0B1FB002001F0AEFB442001F0AC
:10340000ABFB002001F0A8FB442001F0A5FB00204D
:1034100001F0A2FB552001F09FFB002001F09CFB76
:10342000E92001F09FFBAA2001F096FB002001F0AB
:1034300093FB002001F090FB002001F08DFB0020A9
:1034400001F090FBAA2001F087FBCF2001F08AFB5E
:10345000002001F081FB002001F07EFB002001F044
:103460007BFB002001F078FB002001F075FB0020C1
:1034700001F072FB002001F06FFB002001F06CFBFB
:10348000002001F069FB002001F066FB002001F044
:1034900063FB002001F060FB002001F05DFB0020D9
:1034A00001F05AFB002001F057FB002001F054FB13
:1034B000002001F051FBF02001F054FB002001F04E
:1034C0004BFB502001F048FB002001F045FB0020A1
:1034D00001F042FB002001F03FFBF32001F042FB32
:1034E000002001F039FBF92001F03CFB062001F03F
:1034F00033FB102001F030FB292001F02DFB0020D0
:1035000001F02AFB3A2001F02DFB552001F024FBAD
:10351000112001F027FB6420FDF7EEFA292001F0CD
:1035200021FB352001F01EFB002001F015FB51208E
:1035300001F018FBFF2001F00FFB532001F012FBFC
:103540002C2001F009FB552001F00CFB822001F03A
:1035500003FB2C2001F006FB01F048B8FE488088F0
:1035600045F2105188427DD155214FF4704001F051
:1035700009FBAA214FF2010001F004FB52214FF296
:10358000020001F0FFFA08214FF2030001F0FAFAFD
:1035900001214FF2040001F0F5FA0D214FF4304003
:1035A00001F0F0FA0D214BF2010001F0EBFA0D21D0
:1035B0004BF2020001F0E6FA34214FF4364001F0FC
:1035C000E1FA34214BF2016001F0DCFA34214BF2D4
:1035D000026001F0D7FA0D214FF4314001F0D2FA28
:1035E0000D214BF2011001F0CDFA0D214BF202102A
:1035F00001F0C8FA34214FF4374001F0C3FA342106
:103600004BF2017001F0BEFA34214BF2027001F06E
:10361000B9FA00214FF4324001F0B4FA00214BF224
:10362000012001F0AFFA00214BF2022001F0AAFACA
:1036300024214FF4384001F0A5FA24214BF6010073
:1036400001F0A0FA24214BF6020001F09BFA0121BF
:103650004FF43F4001F096FA0F214FF4334001F050
:1036600091FA00E0FDE30F214BF2013001F08AFAFC
:103670000F214BF2023001F085FA34214FF439402A
:1036800001F080FA34214BF6011001F07BFA34216D
:103690004BF6021001F076FA08214FF4354001F0A4
:1036A00071FA08214BF2015001F06CFA08214BF23B
:1036B000025001F067FA03214FF4424001F062FA30
:1036C00024214FF43A4001F05DFA24214BF6012009
:1036D00001F058FA24214BF6022001F053FA0021A0
:1036E0004FF43C4001F04EFA78214BF6014001F0D6
:1036F00049FA00214BF6024001F044FA00214FF450
:103700003D4001F03FFA78214BF6015001F03AFAC2
:1037100000214BF6025001F035FA00214FF43E40F3
:1037200001F030FA64214BF6016001F02BFA002120
:103730004FF4514001F026FA33214DF2011001F00F
:1037400021FA00214DF2021001F01CFA34214DF251
:10375000031001F017FA00214DF2041001F012FAE3
:103760003A214DF2051001F00DFA00214DF206103C
:1037700001F008FA4A214DF2071001F003FA002186
:103780004DF2081001F0FEF95C214DF2091001F034
:10379000F9F900214DF20A1001F0F4F981214DF2FE
:1037A0000B1001F0EFF900214DF20C1001F0EAF9D5
:1037B000A6214DF20D1001F0E5F900214DF20E1099
:1037C00001F0E0F9E5214DF20F1001F0DBF90121E4
:1037D0004DF2101001F0D6F913214DF2111001F045
:1037E000D1F901214DF2121001F0CCF954214DF222
:1037F000131001F0C7F901214DF2141001F0C2F9C4
:1038000082214DF2151001F0BDF901214DF2161083
:1038100001F0B8F9CA214DF2171001F0B3F90221F5
:103820004DF2181001F0AEF900214DF2191001F01F
:10383000A9F902214DF21A1001F0A4F901214DF26B
:103840001B1001F09FF902214DF21C1001F09AF9B2
:1038500034214DF21D1001F095F902214DF21E1098
:1038600001F090F967214DF21F1001F08BF9022150
:103870004DF2201001F086F984214DF2211001F063
:1038800081F902214DF2221001F07CF9A4214DF2C0
:10389000231001F077F902214DF2241001F072F9A2
:1038A000B7214DF2251001F06DF902214DF22610DD
:1038B00001F068F9CF214DF2271001F063F90221E0
:1038C0004DF2281001F05EF9DE214DF2291001F0D1
:1038D00059F902214DF22A1001F054F9F2214DF26A
:1038E0002B1001F04FF902214DF22C1001F04AF992
:1038F000FE214DF22D1001F045F903214DF22E105D
:1039000001F040F910214DF22F1001F03BF9032195
:103910004DF2301001F036F933214DF2311001F043
:1039200031F903214DF2321001F02CF96D214DF2E5
:10393000331001F027F900214FF4524001F022F931
:1039400033214DF2012001F01DF900214DF202203A
:1039500001F018F9342101E0081B00204DF203208A
:1039600001F010F900214DF2042001F00BF93A2189
:103970004DF2052001F006F900214DF2062001F07C
:1039800001F94A214DF2072001F0FCF800214DF227
:10399000082001F0F7F85C214DF2092001F0F2F85F
:1039A00000214DF20A2001F0EDF881214DF20B20AB
:1039B00001F0E8F800214DF20C2001F0E3F8A62117
:1039C0004DF20D2001F0DEF800214DF20E2001F045
:1039D000D9F8E5214DF20F2001F0D4F801214DF284
:1039E000102001F0CFF813214DF2112001F0CAF898
:1039F00001214DF2122001F0C5F854214DF213209F
:103A000001F0C0F801214DF2142001F0BBF8822131
:103A10004DF2152001F0B6F801214DF2162001F00B
:103A2000B1F8CA214DF2172001F0ACF802214DF295
:103A3000182001F0A7F800214DF2192001F0A2F89A
:103A400002214DF21A2001F09DF801214DF21B20B8
:103A500001F098F802214DF21C2001F093F8342176
:103A60004DF21D2001F08EF802214DF21E2001F0D2
:103A700089F867214DF21F2001F084F802214DF2F0
:103A8000202001F07FF884214DF2212001F07AF806
:103A900002214DF2222001F075F8A4214DF22320DD
:103AA00001F070F802214DF2242001F06BF8B721EB
:103AB0004DF2252001F066F802214DF2262001F09A
:103AC00061F8CF214DF2272001F05CF802214DF280
:103AD000282001F057F8DE214DF2292001F052F89C
:103AE00002214DF22A2001F04DF8F2214DF22B2057
:103AF00001F048F802214DF22C2001F043F8FE219C
:103B00004DF22D2001F03EF803214DF22E2001F060
:103B100039F810214DF22F2001F034F803214DF235
:103B2000302001F02FF833214DF2312001F02AF836
:103B300003214DF2322001F025F86D214DF23320A2
:103B400001F020F800214FF4534001F01BF833211D
:103B50004DF2013001F016F800214DF2023001F073
:103B600011F834214DF2033001F00CF800214DF230
:103B7000043001F007F83A214DF2053001F002F867
:103B800000214DF2063000F0FDFF4A214DF20730D2
:103B900000F0F8FF00214DF2083000F0F3FF5C2147
:103BA0004DF2093000F0EEFF00214DF20A3000F036
:103BB000E9FF81214DF20B3000F0E4FF00214DF2CE
:103BC0000C3000F0DFFFA6214DF20D3000F0DAFFDF
:103BD00000214DF20E3000F0D5FFE5214DF20F30FF
:103BE00000F0D0FF01214DF2103000F0CBFF132187
:103BF0004DF2113000F0C6FF01214DF2123000F0FD
:103C0000C1FF54214DF2133000F0BCFF01214DF2F1
:103C1000143000F0B7FF82214DF2153000F0B2FFF2
:103C200001214DF2163000F0ADFFCA214DF21730E0
:103C300000F0A8FF02214DF2183000F0A3FF002190
:103C40004DF2193000F09EFF02214DF21A3000F0C3
:103C500099FF01214DF21B3000F094FF02214DF23B
:103C60001C3000F08FFF34214DF21D3000F08AFF30
:103C700002214DF21E3000F085FF67214DF21F300A
:103C800000F080FF02214DF2203000F07BFF842104
:103C90004DF2213000F076FF02214DF2223000F08B
:103CA00071FFA4214DF2233000F06CFF02214DF290
:103CB000243000F067FFB7214DF2253000F062FF9D
:103CC00002214DF2263000F05DFFCF214DF227306A
:103CD00000F058FF02214DF2283000F053FFDE21A2
:103CE0004DF2293000F04EFF02214DF22A3000F053
:103CF00049FFF2214DF22B3000F044FF02214DF23A
:103D00002C3000F03FFFFE214DF22D3000F03AFF45
:103D100003214DF22E3000F035FF10214DF22F30EF
:103D200000F030FF03214DF2303000F02BFF332143
:103D30004DF2313000F026FF03214DF2323000F019
:103D400021FF6D214DF2333000F01CFF00214FF4B4
:103D5000544000F017FF33214DF2014000F012FFF4
:103D600000214DF2024000F00DFF34214DF20340DE
:103D700000F008FF00214DF2044000F003FF3A215B
:103D80004DF2054000F0FEFE00214DF2064000F02D
:103D9000F9FE4A214DF2074000F0F4FE00214DF2F9
:103DA000084000F0EFFE5C214DF2094000F0EAFE11
:103DB00000214DF20A4000F0E5FE81214DF20B405A
:103DC00000F0E0FE00214DF20C4000F0DBFEA621E9
:103DD0004DF20D4000F0D6FE00214DF20E4000F0F5
:103DE000D1FEE5214DF20F4000F0CCFE01214DF255
:103DF000104000F0C7FE13214DF2114000F0C2FE4A
:103E000001214DF2124000F0BDFE54214DF213404D
:103E100000F0B8FE01214DF2144000F0B3FE822103
:103E20004DF2154000F0AEFE01214DF2164000F0BB
:103E3000A9FECA214DF2174000F0A4FE02214DF266
:103E4000184000F09FFE00214DF2194000F09AFE4C
:103E500002214DF21A4000F095FE01214DF21B4067
:103E600000E005E300F08EFE02214DF21C4000F060
:103E700089FE34214DF21D4000F084FE02214DF2F6
:103E80001E4000F07FFE67214DF21F4000F07AFED9
:103E900002214DF2204000F075FE84214DF22140B8
:103EA00000F070FE02214DF2224000F06BFEA421D2
:103EB0004DF2234000F066FE02214DF2244000F056
:103EC00061FEB7214DF2254000F05CFE02214DF26B
:103ED000264000F057FECF214DF2274000F052FE61
:103EE00002214DF2284000F04DFEDE214DF2294026
:103EF00000F048FE02214DF22A4000F043FEF2217C
:103F00004DF22B4000F03EFE02214DF22C4000F01D
:103F100039FEFE214DF22D4000F034FE03214DF21A
:103F20002E4000F02FFE10214DF22F4000F02AFE0F
:103F300003214DF2304000F025FE33214DF2314097
:103F400000F020FE03214DF2324000F01BFE6D21F7
:103F50004DF2334000F016FE00214FF4554000F0C2
:103F600011FE33214DF2015000F00CFE00214DF204
:103F7000025000F007FE34214DF2035000F002FE23
:103F800000214DF2045000F0FDFD3A214DF20550A4
:103F900000F0F8FD00214DF2065000F0F3FD4A213B
:103FA0004DF2075000F0EEFD00214DF2085000F0F8
:103FB000E9FD5C214DF2095000F0E4FD00214DF2D5
:103FC0000A5000F0DFFD81214DF20B5000F0DAFDC8
:103FD00000214DF20C5000F0D5FDA6214DF20D5000
:103FE00000F0D0FD00214DF20E5000F0CBFDE52198
:103FF0004DF20F5000F0C6FD01214DF2105000F0BF
:10400000C1FD13214DF2115000F0BCFD01214DF214
:10401000125000F0B7FD54214DF2135000F0B2FDE4
:1040200001214DF2145000F0ADFD82214DF21550EA
:1040300000F0A8FD01214DF2165000F0A3FDCA21A9
:104040004DF2175000F09EFD02214DF2185000F085
:1040500099FD00214DF2195000F094FD02214DF21E
:104060001A5000F08FFD01214DF21B5000F08AFD27
:1040700002214DF21C5000F085FD34214DF21D50FF
:1040800000F080FD02214DF21E5000F07BFD672103
:104090004DF21F5000F076FD02214DF2205000F04D
:1040A00071FD84214DF2215000F06CFD02214DF292
:1040B000225000F067FDA4214DF2235000F062FD74
:1040C00002214DF2245000F05DFDB7214DF2255044
:1040D00000F058FD02214DF2265000F053FDCF2193
:1040E0004DF2275000F04EFD02214DF2285000F015
:1040F00049FDDE214DF2295000F044FD02214DF230
:104100002A5000F03FFDF2214DF22B5000F03AFD15
:1041100002214DF22C5000F035FDFE214DF22D50C4
:1041200000F030FD03214DF22E5000F02BFD102148
:104130004DF22F5000F026FD03214DF2305000F0DB
:1041400021FD33214DF2315000F01CFD03214DF2D1
:10415000325000F017FD6D214DF2335000F012FD8A
:1041600000214FF4564000F00DFD33214DF2016067
:1041700000F008FD00214DF2026000F003FD342143
:104180004DF2036000F0FEFC00214DF2046000F0EF
:10419000F9FC3A214DF2056000F0F4FC00214DF2EB
:1041A000066000F0EFFC4A214DF2076000F0EAFCE7
:1041B00000214DF2086000F0E5FC5C214DF2096041
:1041C00000F0E0FC00214DF20A6000F0DBFC8121F0
:1041D0004DF20B6000F0D6FC00214DF20C6000F0B7
:1041E000D1FCA6214DF20D6000F0CCFC00214DF277
:1041F0000E6000F0C7FCE5214DF20F6000F0C2FC3C
:1042000001214DF2106000F0BDFC13214DF2116050
:1042100000F0B8FC01214DF2126000F0B3FC542113
:104220004DF2136000F0AEFC01214DF2146000F07D
:10423000A9FC82214DF2156000F0A4FC01214DF291
:10424000166000F09FFCCA214DF2176000F09AFC46
:1042500002214DF2186000F095FC00214DF219602A
:1042600000F090FC02214DF21A6000F08BFC01215D
:104270004DF21B6000F086FC02214DF21C6000F044
:1042800081FC34214DF21D6000F07CFC02214DF2D6
:104290001E6000F077FC67214DF21F6000F072FC99
:1042A00002214DF2206000F06DFC84214DF221606E
:1042B00000F068FC02214DF2226000F063FCA421B2
:1042C0004DF2236000F05EFC02214DF2246000F00C
:1042D00059FCB7214DF2256000F054FC02214DF24B
:1042E000266000F04FFCCF214DF2276000F04AFC21
:1042F00002214DF2286000F045FCDE214DF22960DC
:1043000000F040FC02214DF22A6000F03BFCF2215B
:104310004DF22B6000F036FC02214DF22C6000F0D3
:1043200031FCFE214DF22D6000F02CFC03214DF2FA
:104330002E6000F027FC10214DF22F6000F022FCCF
:1043400003214DF2306000F01DFC33214DF231604D
:1043500000F018FC03214DF2326000F013FC6D21D7
:104360004DF2336000F00EFC55214FF4704000F028
:1043700009FCAA214FF2010000F004FC52214FF287
:10438000020000F0FFFB08214FF2030000F0FAFBEF
:1043900000214FF2040000F0F5FBCC214FF4314036
:1043A00000F0F0FB00214BF2011000F0EBFB0521C7
:1043B0004FF4364000F0E6FB70214FF4374000F038
:1043C000E1FB70214BF2017000F0DCFB01214FF4A6
:1043D000384000F0D7FB03214BF6010000F0D2FB80
:1043E00003214BF6020000F0CDFB03214BF6030046
:1043F00000F0C8FB02214FF43C4000F0C3FB002159
:104400004BF6014000F0BEFB00214BF6024000F0ED
:10441000B9FBD0214FF4494000F0B4FB02214CF627
:10442000011000F0AFFB50214CF6021000F0AAFB87
:1044300050214CF6031000F0A5FB50214CF604105F
:1044400000F0A0FB00214FF4545000F09BFB5521DD
:104450004FF4685000F096FB4FF4885000F082FB58
:104460000120FCF749FB4FF4245000F07BFBBDE03A
:104470006548808841F663118842F8D1E22000F057
:1044800071FB1D2000F068FB022000F065FB04209A
:1044900000F062FB0120FCF72FFBE02000F062FB44
:1044A000012000F059FB0A20FCF726FBE02000F079
:1044B00059FB032000F050FB0C20FCF71DFB0120F2
:1044C00000F050FB0A20FCF717FBE62000F04AFB47
:1044D0002F2000F041FBFF2000F03EFBFF2000F00A
:1044E0003BFBB02000F03EFB202000F035FB00201D
:1044F00000F032FB032000F02FFB40F21F3000F0F1
:104500002BFB012000F028FB40F2DF1000F024FB21
:10451000002000F021FBB42000F024FB042000F078
:104520001BFB40F21F4000F017FB002000F014FBC3
:104530002E2000F011FB002000F00EFB002000F008
:104540000BFB002000F008FB002000F005FBB6206C
:1045500000F008FB022000F0FFFA4FF4037000F0B7
:10456000FBFA002000F0F8FA172000F0F5FA152009
:1045700000F0F2FA002000F0EFFA002000F0ECFA70
:10458000F02000F0EFFA032000F0E6FA292000F016
:10459000E9FAD02000F0E6FA002000F0DDFABE20B3
:1045A00000F0E0FA052000F0D7FAFE2000F0D4FA7F
:1045B000012000F0D1FA002000F0CEFA002000F037
:1045C000CBFA002000F0C8FAB82000F0CBFA0320A4
:1045D00000F0C2FA012000F0BFFABA2000F0C2FADF
:1045E000012000F0B9FA642000F018F80120FDF76E
:1045F00049FC012211460548FCF7D1FB4FF6FF703C
:10460000FDF726FC10BD0000081B0020000C014037
:1046100001490888704700000008006C2DE9F04748
:104620000446BE2000F09EFA052000F095FA2046D0
:10463000FBF78EFE07464FF066320C4BFBF716FE7B
:104640000546FBF792FE1FFA80F9484600F084FA0F
:10465000012000F081FAFF2000F07EFA002000F037
:104660007BFA002000F078FABDE8F0876666044027
:1046700070B504460023002689488079012805D1B9
:104680008748808841F66311884208D18448807940
:10469000F0B98348808841F66311884218D1082C0C
:1046A00015D2DFE804F00406080A0C0E10120624E6
:1046B0000DE007240BE0042409E0052407E00124B1
:1046C00005E0002403E0032401E0022400BF00BF52
:1046D000082C1CD2DFE804F00406090C0F12151890
:1046E00000BF14E043F0800311E043F040030EE00C
:1046F00043F0C0030BE043F0200308E043F0600305
:1047000005E043F0A00302E043F0E00300BF00BF78
:104710006348808845F21051884202D14FF45856C0
:1047200000E036265E48808849F24131884205D053
:104730005B48808847F28971884201D143F00803C1
:104740001946304600F01EFA5548808841F663113C
:1047500088421DD003F0200068B1514800885049BC
:104760004988884214DA4E48058840884C490880B8
:10477000084645800CE04A480088494949888842F3
:1047800006DD474805884088454908800846458039
:104790004348808845F21051884252D140494889A7
:1047A00000F0E0F9002000F0D7F93D494989491CA3
:1047B00088B200F0D7F9002000F0CEF938494989D5
:1047C000891C88B200F0CEF935490988491EC1F329
:1047D0000F2000F0C1F932494989C91C88B200F0A4
:1047E000C1F92F490978491EC8B200F0B5F92C4922
:1047F000888900F0B7F9002000F0AEF928498989CE
:10480000491C88B200F0AEF9002000F0A5F9244957
:104810008989891C88B200F0A5F921494988491E77
:10482000C1F30F2000F098F91D498989C91C88B28D
:1048300000F098F91A498978491EC8B200F08CF93D
:104840002DE01749488900F08DF9002000F084F927
:10485000002000F081F912490988491EC1F30F2098
:1048600000F07AF90E490978491EC8B200F074F9CF
:104870000B49888900F076F9002000F06DF90020DE
:1048800000F06AF906494988491EC1F30F2000F07B
:1048900063F903498978491EC8B200F05DF970BD1B
:1048A000081B002000B502460B464548808841F6AB
:1048B0006311884247D142488079A8B940480088AE
:1048C000401E801A82B23E49488900F04BF9002010
:1048D00000F042F9002000F03FF9101200F03CF91E
:1048E000D0B200F039F916E03549488900F03AF9BC
:1048F000101200F031F9D0B200F02EF930490988D9
:10490000491EC1F30F2000F027F92D490978491EEF
:10491000C8B200F021F92A49888900F023F9181259
:1049200000F01AF9D8B200F017F925494988491E54
:10493000C1F30F2000F010F921498978491EC8B24F
:1049400000F00AF93AE01E48808845F2105188428A
:1049500020D11B49488900F005F9101200F0FCF83D
:1049600017494989491C88B200F0FCF8D0B200F020
:10497000F3F81349888900F0F5F8181200F0ECF804
:104980000F498989491C88B200F0ECF8D8B200F0D0
:10499000E3F813E00A49488900F0E4F8101200F047
:1049A000DBF8D0B200F0D8F80549888900F0DAF8D1
:1049B000181200F0D1F8D8B200F0CEF800BD000017
:1049C000081B00202DE9F84F80460E4617461C466E
:1049D000B3462046E31704EB5373DB1021464FEA3E
:1049E000E47C04EB5C7C4FEAEC0CA4EBCC0CBCF15B
:1049F000000F02D04FF0010C01E04FF0000C6344B7
:104A0000224604EBD27C4FEA6C0C03FB0CF3DBB2C6
:104A10000093A7F12000C7B2002558E00C2C07D165
:104A200007EB47002C4901EB800010F8059013E0DC
:104A3000102C05D1294800EB071010F805900BE069
:104A4000182C07D107EBC700254901EB800010F8AF
:104A5000059001E0BDE8F88F4FF0000A31E009F061
:104A6000800038B11F48008882B231464046FDF7C9
:104A7000A1FA08E00A9830B91B48008882B2314692
:104A80004046FDF797FA4FEA49604FEA1069701CFB
:104A900086B216484088B04200DCDBE7A6EB0B008C
:104AA000A0420AD15E4608F101001FFA80F80F48C3
:104AB0000088404500DCCDE706E00AF1010000F087
:104AC000FF0ABAF1080FCADB00BF681CC5B2009824
:104AD0008542A3DB00BFBDE7067700087A7B0008AC
:104AE0006A8100089400002098000020081B002024
:104AF0002DE9F84704460D4690469946DDE90967D9
:104B000004F0FF0A08EB04001FFA80F809EB050027
:104B10001FFA80F916E0444502DB5446A81985B215
:104B20004D4500DB14E0002000903A7833462946DA
:104B30002046FFF747FF304606EBD07104EB6101DA
:104B40008CB27F1C38787E2802DC38782028E2DAA4
:104B500000BFBDE8F887000000BF0149088070472A
:104B60000008006C00BF014908807047FE07006C18
:104B7000024800890249088070470000081B002095
:104B8000FE07006C024A1080921C118070470000E2
:104B9000FE07006C0FB4F0B58FB005460E46144604
:104BA00018A8029003A8029A179900F099FC002017
:104BB0000290302703A8FA0010233146CDE90040C7
:104BC0002846FFF795FF0FB0F0BC5DF814FB00001E
:104BD00008B50024FDF766FA1C4900201CA30860F4
:104BE00010220A211E20FFF7D5FF1E211DA310222F
:104BF0000846FFF7CFFF20A3102232211E20FFF727
:104C0000C9FF22A3102246211E20FFF7C3FF23A3C2
:104C100010225A211E20FFF7BDFF23A310226E2170
:104C20001E20FFF7B7FF25A3102282211E20FFF7C9
:104C3000B1FF20460090641C24A3102282219820FA
:104C4000FFF7A8FF642001F0F5F8F2E794000020D8
:104C500041544B2053544D3332463130332F463478
:104C6000303700004672656552544F5320457861D5
:104C70006D7020362D3100005461736B20437265D6
:104C8000617420616E642044656C000041544F4D96
:104C900040414C49454E54454B00000032303136BE
:104CA0002F31312F323500004C43445F5072696E12
:104CB0007466207265616421212121004C43445FA8
:104CC0005072696E74662073756D3A002564000039
:104CD000012302B110318B40036170470A4C0BA0D5
:104CE00000F0EEFB002205212046FFF7F1FF6420D3
:104CF00001F0A0F8012205212046FFF7E9FF64201A
:104D000001F098F8EBE70000000C01405461736B70
:104D10000D0A00000B4D4FF47A740A2001F08AF856
:104D2000002205212846FFF7D3FF204601F082F834
:104D3000012205212846FFF7CBFF204601F07AF833
:104D4000EBE700000018014010B50020FBF7BCFDA8
:104D5000034A0021034801F0C3F80349086010BD6D
:104D6000B8760008BD4F00080000002010B58EB0D6
:104D70001C216846FBF76FFA1C2107A8FBF76BFAAA
:104D80001C484FF02041102201601B494160062160
:104D900081600021C160C0E904128161C161130218
:104DA0000162C0E909139302C0E90B1341638163F7
:104DB000022000900F20CDE9010203AC112384E80A
:104DC0000E0004240691CDE9074009AC092084E8CF
:104DD0000F000D9107AA69460648FCF741FB08B190
:104DE000FBF7FBFC0548C16941F48061C1610EB06D
:104DF00010BD0000CC000020040100A00000014014
:104E00002DE9F04385B000253248009501950295C3
:104E10000395816941F040018161816901F04001A0
:104E20000491816941F004018161816901F004010B
:104E30000491816941F008018161816901F00801F3
:104E40000491816941F480718161816901F480710B
:104E50000491816941F0200181618069DFF87880E7
:104E600000F020000490012220214046FBF797FF2C
:104E7000DFF86890002201214846FBF790FF0122ED
:104E800020214846FBF78BFF1820CDE900050124BF
:104E9000694602944046FBF781FE202701AA0226BC
:104EA000009782E8700069464046FBF777FE009461
:104EB000CDE90146694648460396FBF76FFE01AA15
:104EC000009782E8700069464846FBF767FE05B028
:104ED000BDE8F0830010024000180140000C0140C2
:104EE00010B58EB000240794089409940A940B948A
:104EF0001C2168460C94FBF7AEF920481E4901605E
:104F00004721C0E9011440F2E731C0E903148021D0
:104F10008161FCF719FB08B1FBF75FFC4FF480508F
:104F2000079007A91548FCF787FB08B1FBF755FC6C
:104F30001248FCF730FD08B1FBF74FFC0B940BA9AE
:104F40000E480C94FCF7C2FA08B1FBF746FC60204F
:104F5000009040F2F310CDE90104082269460748A9
:104F60000494FCF7B2FC08B1FBF737FC0348FCF7EC
:104F700085FC0EB010BD00000008004014010020A8
:104F80000C4810B50A4901604FF4E131416000213D
:104F900081600C22C160C0E904128161C161FCF72B
:104FA0006DFE002803D0BDE81040FBF716BC10BD15
:104FB000003801405C010020FEE7FEE7012000F020
:104FC00039FFFBE710B5502080F31188BFF34F8FF6
:104FD000BFF36F8F02F0CEF918B104494FF0805043
:104FE0000860002080F3118810BD000004ED00E08F
:104FF00030B58FB028216846FBF72DF914210AA897
:10500000FBF729F901210804CDE9001000240294DE
:1050100002250491CDE907504FF4E010099068464D
:10502000FCF78EF808B172B6FEE70F20CDE90A054D
:105030004FF48060CDE90C4002210AA80E94FBF7E2
:1050400083FF002801D072B6FEE70FB030BD704775
:105050000148FCF760BB0000A4010020F0B5026825
:105060001C4B1D4D1D4E1E4F1E4C4FF0804C984248
:1050700009D0A04207D0604505D0A84203D0B04275
:1050800001D0B84204D122F0700E4A6842EA0E0202
:10509000984209D0A04207D0604505D0A84203D06D
:1050A000B04201D0B84203D122F44075CA682A4305
:1050B0004D6922F080022A4302608A68C2620A684F
:1050C0008262984201D0A04201D1096901630121A5
:1050D0004161F0BD002C0140000400400008004088
:1050E000000C00400034014010B5846842EA0322FD
:1050F00024F47F440A432243826010BD826822F078
:1051000070020A4342F0070181607047F0B5036AFC
:10511000026A22F00102026242688469124E24F09F
:1051200073050C682C4323F002058B682B430D4D4F
:10513000A84201D0B04205D123F00807CB683B4319
:1051400023F00403A84201D0B04205D14D6922F4F6
:10515000407215438A692A43426084614968416309
:105160000362F0BD002C014000340140F0B5026A3A
:10517000036A23F010030362436884690D6824F412
:10518000E64444EA05248D6822F0200242EA051232
:105190000F4D104EA84201D0B04206D1CF6822F088
:1051A000800242EA071222F04002A84201D0B04237
:1051B00007D14D6923F4406343EA85038D6943EACF
:1051C000850343608461496881630262F0BD000029
:1051D000002C014000340140F0B5026A036A23F458
:1051E000807303624368C46922F4007224F073057B
:1051F0000C68124E2C438D6842EA05220E4DA842DF
:1052000001D0B04206D1CF6822F4006242EA072200
:1052100022F48062A84201D0B04207D14D6923F444
:10522000405343EA05138D6943EA05134360C461A3
:105230004968C1630262F0BD002C014000340140A6
:1052400030B5046A026A22F4805202624268C3697D
:105250000D6823F4E64343EA05238D6824F40054E3
:1052600044EA0534084DA84202D0084DA84204D1B2
:105270004D6922F4804242EA85124260C361496866
:105280000164046230BD0000002C01400034014084
:1052900010B5036A046A24F001040462846924F0EE
:1052A000F00444EA021423F00A020A438461026211
:1052B00010BD10B5036A046A24F010040462846906
:1052C00023F0A00324F4704444EA023243EA0111BB
:1052D0008261016210BD10B5406A0021C185C184A0
:1052E000FCF794FB10BD01680C3151E8002F22F44B
:1052F000907241E80023002BF5D10168143151E888
:10530000002F22F0010241E80023002BF5D1016BB0
:10531000012909D101680C3151E8002F22F0100257
:1053200041E80023002BF5D1202180F84210002114
:105330000163704708B590F84210222901D002207D
:1053400008BD82684FF480539A4201D1016921B1AE
:10535000816A9A421BD04AB10AE00268816A5268A7
:10536000C2F308020A80816A891C08E0026972B1EE
:105370000268526802F07F020A70816A491C8162E9
:10538000C18D491E0904090CC18503D01BE00268C8
:105390005268F1E70168CA6822F02002CA60016819
:1053A000CA6822F48072CA6001684A6922F0010268
:1053B0004A61202180F8421000214163026B012ADA
:1053C00003D0FCF7CDFC002008BD016301680C315F
:1053D00051E8002F22F0100241E80023002BF5D104
:1053E00001680A68D20602D50A6849680091818D71
:1053F000FCF70BFBE7E7000070B5044600680169A5
:10540000E26821F44051114301612169A068084319
:10541000616908432168CA6841F20C639A430243F8
:10542000CA6020684169A26921F440711143416159
:105430001E492068884202D1FBF74CFE01E0FBF7D1
:1054400039FE00EBC00101EB0012606864218000AE
:10545000B2FBF0F3B3FBF1F36FF018067343B2FB4A
:10546000F0F5B2FBF0F605EB8305322303EB0515EF
:10547000B5FBF1F5B6FBF1F605F0F00505EB061509
:10548000B2FBF0F6B2FBF0F0B0FBF1F06FF01802F7
:10549000504306EB800003EB0010B0FBF1F02168F5
:1054A00000F00F002844886070BD00000038014003
:1054B0000148FCF7ADBA00005C010020FEE70000E7
:1054C0000FB4054B10B503A9044A029800F0FCF88C
:1054D00010BC5DF814FB0000D95D0008A00000209E
:1054E00037B514460846064B6A46214600F0ECF8EC
:1054F00004466946002000F06AFC20463EBD0000DC
:10550000CF5D00080907090E002804DB00F1E02048
:1055100080F80014704700F00F0000F1E02080F8E0
:10552000141D704702E008C8121F08C1002AFAD1F2
:1055300070477047002001E001C1121F002AFBD113
:10554000704700002DE9FF5F82B00021DDE90430E3
:10555000020DDDF840B0034318D044F61050A2F21B
:10556000FF3242431514119801281FD0A5EB0B0000
:10557000401C5FEA000A4FF000064E4FDFF83891FA
:10558000B046504615D5CAF1000413E01198012425
:105590004AA3012801D16FEA0B010298119AC0E9D0
:1055A0000031C0E9024206B0BDE8F09FCBF1000037
:1055B000DFE704460021404A491842EB0450CDE998
:1055C000001012E0E00707D032463B46404649460D
:1055D000FAF74CFE8046894632463B46104619464D
:1055E000FAF744FE06460F466410002CEAD1DDE9C6
:1055F0000401DDE90023BAF1000F06DAFAF736FEFE
:1056000042464B46FAF732FE05E0FBF712F84246F7
:105610004B46FBF70EF804460E460022284BFBF7DC
:105620008FF803D84FF0FF30014607E00022254BEA
:1056300020463146FAF756FFFBF76AF8102409E0D6
:10564000002C0ADB0A220023FAF7BEFE039B30324D
:105650001A55641E50EA0102F2D1641C039AC4F187
:1056600011031444119A012A03D0012208430DD1D9
:105670000AE0084304D000204FF0110B119072E7AC
:10568000A3EB0B056D1E0DE05B4504DD4FF0000242
:1056900005F1010504E003DA4FF00002A5F1010570
:1056A000002AECD002981199C0E90231C0E9004506
:1056B00079E70000000014400000F03F30000000D7
:1056C0000000F0430000E03F2DE9FF4F95B09A46FF
:1056D000884606460025EEE1252877D10024274696
:1056E000F94A0121039400E0044316F8013F203BEE
:1056F00001FA03F01042F7D130782A2811D06FF068
:105700002F033078A0F13002092A16D8039A44F00A
:10571000020402EB820203EB42021044761C039067
:10572000EFE758F8042B0392002A03DA504244F4BE
:105730000054039044F00204761C30782E2816D1D1
:1057400016F8010F44F004042A280DD06FF02F0240
:105750003078A0F13003092B09D807EB870302EB5F
:105760004303C718761CF3E758F8047B761C30789F
:105770006C280FD006DC4C2817D068280DD06A287A
:1057800014D104E0742810D07A280FD10DE044F42D
:1057900000140AE044F4801401E044F440147278E8
:1057A000824202D104F58014761C761C307866287B
:1057B0000BD013DC582877D009DC002875D0452899
:1057C000F6D04628F4D047281AD193E118E0632890
:1057D00035D0642879D0652812D18BE1702873D038
:1057E00008DC6728F1D069286FD06E280DD06F28AB
:1057F00006D1ACE073282CD0752874D0782853D00B
:105800005246179990476D1C54E1C4F30250022888
:1058100009D003280DD0D8F8001004280DD00D6051
:1058200008F1040846E1D8F80010EA17C1E900526F
:10583000F6E7D8F800100D80F2E70D70F0E718F8E1
:10584000041B8DF8001000208DF80100EB460120AC
:1058500003E058F804BB4FF0FF3061074FF0000140
:1058600002D40DE009F101018946B9420FDA814500
:10587000F8DB1BF809100029F4D108E009F1010157
:1058800089468142FADB1BF809100029F6D10398FA
:105890005346A0EB090721463846179A00F080FAD4
:1058A000284400EB090507E044E008E10DE01BF89F
:1058B000010B524617999047B9F10109F7D25346A7
:1058C00021463846179AF2E039E00A21C4F3025221
:1058D0004FF0000B0091022A06D058F8040BC117B4
:1058E000032A09D00AE023E008F1070020F00702AC
:1058F000F2E80201904605E000B2C117042A01D186
:1059000040B2C117002906DA0A460021404261EB85
:1059100002012D2202E0220504D52B228DF804205D
:10592000012203E0E20701D02022F7E7914657E089
:105930000A2100E010214FF0000B00910BE0102134
:105940004FF0000B44F004040827009103E0082006
:105950004FF0000B0090C4F30252022A05D058F811
:10596000040B0021032A08D008E008F1070020F00A
:105970000702F2E80201904603E080B2042A00D157
:10598000C0B24FF0000922072AD53278702A07D01A
:10599000DDF800C08CF0100C5CEA0B0C05D00EE0BA
:1059A00040228DF80420012208E050EA010306D0CD
:1059B00030238DF804308DF8052002229146009B9B
:1059C00083F0080353EA0B030AD150EA010201D124
:1059D000620705D530228DF804204FF001097F1EA3
:1059E0003278582A04D039A20C920CAA02920BE009
:1059F0003BA2F9E75B46009AFAF7E6FC0C9B9B5C3E
:105A0000029A521E0292137050EA0102F2D10298D9
:105A100004A9081A00F1200B600702D524F4803491
:105A200000E001275F4502DDA7EB0B0000E000204E
:105A300000EB0B01009003984944401A0390E003E7
:105A400006D453462146179A039800F0A9F9054455
:105A5000002706E001A85246C05D179990476D1CCB
:105A60007F1C4F45F6DBE0030CD553462146179AC1
:105A7000039800F095F9054404E030205246179948
:105A800090476D1C0099481E00900029F5DC08E045
:105A90000298029952460078491C02911799904742
:105AA0006D1CBBF10001ABF1010BF1DC5BE100F01F
:105AB00065F90544761C307800287FF40DAE19B0E6
:105AC0002846BDE8F08F000009280100303132334C
:105AD000343536373839616263646566000000002A
